{
  "_format": "hh-sol-artifact-1",
  "contractName": "DoubleTransferHelper",
  "sourceName": "contracts/utils/DoubleTransferHelper.sol",
  "abi": [
    {
      "inputs": [
        {
          "internalType": "contract IERC20",
          "name": "lay",
          "type": "address"
        }
      ],
      "stateMutability": "nonpayable",
      "type": "constructor"
    },
    {
      "inputs": [],
      "name": "LAY",
      "outputs": [
        {
          "internalType": "contract IERC20",
          "name": "",
          "type": "address"
        }
      ],
      "stateMutability": "view",
      "type": "function"
    },
    {
      "inputs": [
        {
          "internalType": "address",
          "name": "to",
          "type": "address"
        },
        {
          "internalType": "uint256",
          "name": "amount1",
          "type": "uint256"
        },
        {
          "internalType": "uint256",
          "name": "amount2",
          "type": "uint256"
        }
      ],
      "name": "doubleSend",
      "outputs": [],
      "stateMutability": "nonpayable",
      "type": "function"
    }
  ],
  "bytecode": "0x60a060405234801561001057600080fd5b506040516102f73803806102f783398101604081905261002f91610040565b6001600160a01b0316608052610070565b60006020828403121561005257600080fd5b81516001600160a01b038116811461006957600080fd5b9392505050565b6080516102606100976000396000818160400152818160b9015261014d01526102606000f3fe608060405234801561001057600080fd5b50600436106100365760003560e01c8063809f4c3d1461003b578063983ff7691461007e575b600080fd5b6100627f000000000000000000000000000000000000000000000000000000000000000081565b6040516001600160a01b03909116815260200160405180910390f35b61009161008c3660046101c0565b610093565b005b60405163a9059cbb60e01b81526001600160a01b038481166004830152602482018490527f0000000000000000000000000000000000000000000000000000000000000000169063a9059cbb906044016020604051808303816000875af1158015610102573d6000803e3d6000fd5b505050506040513d601f19601f820116820180604052508101906101269190610201565b5060405163a9059cbb60e01b81526001600160a01b038481166004830152602482018390527f0000000000000000000000000000000000000000000000000000000000000000169063a9059cbb906044016020604051808303816000875af1158015610196573d6000803e3d6000fd5b505050506040513d601f19601f820116820180604052508101906101ba9190610201565b50505050565b6000806000606084860312156101d557600080fd5b83356001600160a01b03811681146101ec57600080fd5b95602085013595506040909401359392505050565b60006020828403121561021357600080fd5b8151801515811461022357600080fd5b939250505056fea2646970667358221220053938ea06093201767f68025d6afd7a9ee067757265fa724fc0fe18e35a3cbf64736f6c634300080b0033",
  "linkReferences": {},
  "deployedLinkReferences": {}
}