{
  "_format": "hh-sol-artifact-1",
  "contractName": "TokenVesting",
  "sourceName": "contracts/token/vesting/TokenVesting.sol",
  "abi": [
    {
      "inputs": [
        {
          "internalType": "address",
          "name": "token_",
          "type": "address"
        }
      ],
      "stateMutability": "nonpayable",
      "type": "constructor"
    },
    {
      "anonymous": false,
      "inputs": [
        {
          "indexed": true,
          "internalType": "address",
          "name": "previousOwner",
          "type": "address"
        },
        {
          "indexed": true,
          "internalType": "address",
          "name": "newOwner",
          "type": "address"
        }
      ],
      "name": "OwnershipTransferred",
      "type": "event"
    },
    {
      "anonymous": false,
      "inputs": [
        {
          "indexed": false,
          "internalType": "uint256",
          "name": "amount",
          "type": "uint256"
        }
      ],
      "name": "Released",
      "type": "event"
    },
    {
      "anonymous": false,
      "inputs": [],
      "name": "Revoked",
      "type": "event"
    },
    {
      "stateMutability": "payable",
      "type": "fallback"
    },
    {
      "inputs": [
        {
          "internalType": "address",
          "name": "holder",
          "type": "address"
        }
      ],
      "name": "computeNextVestingScheduleIdForHolder",
      "outputs": [
        {
          "internalType": "bytes32",
          "name": "",
          "type": "bytes32"
        }
      ],
      "stateMutability": "view",
      "type": "function"
    },
    {
      "inputs": [
        {
          "internalType": "bytes32",
          "name": "vestingScheduleId",
          "type": "bytes32"
        }
      ],
      "name": "computeReleasableAmount",
      "outputs": [
        {
          "internalType": "uint256",
          "name": "",
          "type": "uint256"
        }
      ],
      "stateMutability": "view",
      "type": "function"
    },
    {
      "inputs": [
        {
          "internalType": "address",
          "name": "holder",
          "type": "address"
        },
        {
          "internalType": "uint256",
          "name": "index",
          "type": "uint256"
        }
      ],
      "name": "computeVestingScheduleIdForAddressAndIndex",
      "outputs": [
        {
          "internalType": "bytes32",
          "name": "",
          "type": "bytes32"
        }
      ],
      "stateMutability": "pure",
      "type": "function"
    },
    {
      "inputs": [
        {
          "internalType": "address",
          "name": "_beneficiary",
          "type": "address"
        },
        {
          "internalType": "uint256",
          "name": "_start",
          "type": "uint256"
        },
        {
          "internalType": "uint256",
          "name": "_cliff",
          "type": "uint256"
        },
        {
          "internalType": "uint256",
          "name": "_duration",
          "type": "uint256"
        },
        {
          "internalType": "uint256",
          "name": "_slicePeriodSeconds",
          "type": "uint256"
        },
        {
          "internalType": "bool",
          "name": "_revocable",
          "type": "bool"
        },
        {
          "internalType": "uint256",
          "name": "_amount",
          "type": "uint256"
        }
      ],
      "name": "createVestingSchedule",
      "outputs": [],
      "stateMutability": "nonpayable",
      "type": "function"
    },
    {
      "inputs": [
        {
          "internalType": "address",
          "name": "holder",
          "type": "address"
        }
      ],
      "name": "getLastVestingScheduleForHolder",
      "outputs": [
        {
          "components": [
            {
              "internalType": "bool",
              "name": "initialized",
              "type": "bool"
            },
            {
              "internalType": "address",
              "name": "beneficiary",
              "type": "address"
            },
            {
              "internalType": "uint256",
              "name": "cliff",
              "type": "uint256"
            },
            {
              "internalType": "uint256",
              "name": "start",
              "type": "uint256"
            },
            {
              "internalType": "uint256",
              "name": "duration",
              "type": "uint256"
            },
            {
              "internalType": "uint256",
              "name": "slicePeriodSeconds",
              "type": "uint256"
            },
            {
              "internalType": "bool",
              "name": "revocable",
              "type": "bool"
            },
            {
              "internalType": "uint256",
              "name": "amountTotal",
              "type": "uint256"
            },
            {
              "internalType": "uint256",
              "name": "released",
              "type": "uint256"
            },
            {
              "internalType": "bool",
              "name": "revoked",
              "type": "bool"
            }
          ],
          "internalType": "struct TokenVesting.VestingSchedule",
          "name": "",
          "type": "tuple"
        }
      ],
      "stateMutability": "view",
      "type": "function"
    },
    {
      "inputs": [],
      "name": "getToken",
      "outputs": [
        {
          "internalType": "address",
          "name": "",
          "type": "address"
        }
      ],
      "stateMutability": "view",
      "type": "function"
    },
    {
      "inputs": [
        {
          "internalType": "uint256",
          "name": "index",
          "type": "uint256"
        }
      ],
      "name": "getVestingIdAtIndex",
      "outputs": [
        {
          "internalType": "bytes32",
          "name": "",
          "type": "bytes32"
        }
      ],
      "stateMutability": "view",
      "type": "function"
    },
    {
      "inputs": [
        {
          "internalType": "bytes32",
          "name": "vestingScheduleId",
          "type": "bytes32"
        }
      ],
      "name": "getVestingSchedule",
      "outputs": [
        {
          "components": [
            {
              "internalType": "bool",
              "name": "initialized",
              "type": "bool"
            },
            {
              "internalType": "address",
              "name": "beneficiary",
              "type": "address"
            },
            {
              "internalType": "uint256",
              "name": "cliff",
              "type": "uint256"
            },
            {
              "internalType": "uint256",
              "name": "start",
              "type": "uint256"
            },
            {
              "internalType": "uint256",
              "name": "duration",
              "type": "uint256"
            },
            {
              "internalType": "uint256",
              "name": "slicePeriodSeconds",
              "type": "uint256"
            },
            {
              "internalType": "bool",
              "name": "revocable",
              "type": "bool"
            },
            {
              "internalType": "uint256",
              "name": "amountTotal",
              "type": "uint256"
            },
            {
              "internalType": "uint256",
              "name": "released",
              "type": "uint256"
            },
            {
              "internalType": "bool",
              "name": "revoked",
              "type": "bool"
            }
          ],
          "internalType": "struct TokenVesting.VestingSchedule",
          "name": "",
          "type": "tuple"
        }
      ],
      "stateMutability": "view",
      "type": "function"
    },
    {
      "inputs": [
        {
          "internalType": "address",
          "name": "holder",
          "type": "address"
        },
        {
          "internalType": "uint256",
          "name": "index",
          "type": "uint256"
        }
      ],
      "name": "getVestingScheduleByAddressAndIndex",
      "outputs": [
        {
          "components": [
            {
              "internalType": "bool",
              "name": "initialized",
              "type": "bool"
            },
            {
              "internalType": "address",
              "name": "beneficiary",
              "type": "address"
            },
            {
              "internalType": "uint256",
              "name": "cliff",
              "type": "uint256"
            },
            {
              "internalType": "uint256",
              "name": "start",
              "type": "uint256"
            },
            {
              "internalType": "uint256",
              "name": "duration",
              "type": "uint256"
            },
            {
              "internalType": "uint256",
              "name": "slicePeriodSeconds",
              "type": "uint256"
            },
            {
              "internalType": "bool",
              "name": "revocable",
              "type": "bool"
            },
            {
              "internalType": "uint256",
              "name": "amountTotal",
              "type": "uint256"
            },
            {
              "internalType": "uint256",
              "name": "released",
              "type": "uint256"
            },
            {
              "internalType": "bool",
              "name": "revoked",
              "type": "bool"
            }
          ],
          "internalType": "struct TokenVesting.VestingSchedule",
          "name": "",
          "type": "tuple"
        }
      ],
      "stateMutability": "view",
      "type": "function"
    },
    {
      "inputs": [],
      "name": "getVestingSchedulesCount",
      "outputs": [
        {
          "internalType": "uint256",
          "name": "",
          "type": "uint256"
        }
      ],
      "stateMutability": "view",
      "type": "function"
    },
    {
      "inputs": [
        {
          "internalType": "address",
          "name": "_beneficiary",
          "type": "address"
        }
      ],
      "name": "getVestingSchedulesCountByBeneficiary",
      "outputs": [
        {
          "internalType": "uint256",
          "name": "",
          "type": "uint256"
        }
      ],
      "stateMutability": "view",
      "type": "function"
    },
    {
      "inputs": [],
      "name": "getVestingSchedulesTotalAmount",
      "outputs": [
        {
          "internalType": "uint256",
          "name": "",
          "type": "uint256"
        }
      ],
      "stateMutability": "view",
      "type": "function"
    },
    {
      "inputs": [],
      "name": "getWithdrawableAmount",
      "outputs": [
        {
          "internalType": "uint256",
          "name": "",
          "type": "uint256"
        }
      ],
      "stateMutability": "view",
      "type": "function"
    },
    {
      "inputs": [],
      "name": "owner",
      "outputs": [
        {
          "internalType": "address",
          "name": "",
          "type": "address"
        }
      ],
      "stateMutability": "view",
      "type": "function"
    },
    {
      "inputs": [
        {
          "internalType": "bytes32",
          "name": "vestingScheduleId",
          "type": "bytes32"
        },
        {
          "internalType": "uint256",
          "name": "amount",
          "type": "uint256"
        }
      ],
      "name": "release",
      "outputs": [],
      "stateMutability": "nonpayable",
      "type": "function"
    },
    {
      "inputs": [],
      "name": "renounceOwnership",
      "outputs": [],
      "stateMutability": "nonpayable",
      "type": "function"
    },
    {
      "inputs": [
        {
          "internalType": "bytes32",
          "name": "vestingScheduleId",
          "type": "bytes32"
        }
      ],
      "name": "revoke",
      "outputs": [],
      "stateMutability": "nonpayable",
      "type": "function"
    },
    {
      "inputs": [
        {
          "internalType": "address",
          "name": "newOwner",
          "type": "address"
        }
      ],
      "name": "transferOwnership",
      "outputs": [],
      "stateMutability": "nonpayable",
      "type": "function"
    },
    {
      "inputs": [
        {
          "internalType": "uint256",
          "name": "amount",
          "type": "uint256"
        }
      ],
      "name": "withdraw",
      "outputs": [],
      "stateMutability": "nonpayable",
      "type": "function"
    },
    {
      "stateMutability": "payable",
      "type": "receive"
    }
  ],
  "bytecode": "0x60a060405234801561001057600080fd5b50604051611bbf380380611bbf83398101604081905261002f91610098565b600080546001600160a01b031916339081178255604051909182917f8be0079c531659141344cd1fd0a4f28419497f9722a3daafe3b4186f6b6457e0908290a350600180556001600160a01b03811661008757600080fd5b6001600160a01b03166080526100c8565b6000602082840312156100aa57600080fd5b81516001600160a01b03811681146100c157600080fd5b9392505050565b608051611ac76100f8600039600081816101680152818161097f01528181610c480152610e3b0152611ac76000f3fe60806040526004361061010c5760003560e01c80638af104da1161009a578063ea1bb3d511610061578063ea1bb3d514610300578063f2fde38b14610320578063f51321d714610340578063f7c469f014610360578063f9079b371461038057005b80638af104da1461026d5780638da5cb5b1461028d57806390be10cc146102ab5780639ef346b4146102c0578063b75c7dc6146102e057005b806348deb471116100de57806348deb471146101c05780635a7bb69a146101d557806366afd8ef1461020b578063715018a61461022b5780637e913dc61461024057005b8063130836171461011557806317e289e91461013957806321df0da7146101595780632e1a7d4d146101a057005b3661011357005b005b34801561012157600080fd5b506002545b6040519081526020015b60405180910390f35b34801561014557600080fd5b50610113610154366004611799565b6103a0565b34801561016557600080fd5b507f00000000000000000000000000000000000000000000000000000000000000005b6040516001600160a01b039091168152602001610130565b3480156101ac57600080fd5b506101136101bb366004611800565b610819565b3480156101cc57600080fd5b50600454610126565b3480156101e157600080fd5b506101266101f0366004611819565b6001600160a01b031660009081526005602052604090205490565b34801561021757600080fd5b50610113610226366004611834565b6109ad565b34801561023757600080fd5b50610113610c7d565b34801561024c57600080fd5b5061026061025b366004611819565b610cf1565b6040516101309190611856565b34801561027957600080fd5b506101266102883660046118e1565b610dc9565b34801561029957600080fd5b506000546001600160a01b0316610188565b3480156102b757600080fd5b50610126610e10565b3480156102cc57600080fd5b506102606102db366004611800565b610eb1565b3480156102ec57600080fd5b506101136102fb366004611800565b610f58565b34801561030c57600080fd5b5061012661031b366004611800565b611121565b34801561032c57600080fd5b5061011361033b366004611819565b61120b565b34801561034c57600080fd5b5061026061035b3660046118e1565b6112f5565b34801561036c57600080fd5b5061012661037b366004611819565b611311565b34801561038c57600080fd5b5061012661039b366004611800565b61133b565b6000546001600160a01b031633146103d35760405162461bcd60e51b81526004016103ca9061190b565b60405180910390fd5b80306001600160a01b03166390be10cc6040518163ffffffff1660e01b8152600401602060405180830381865afa158015610412573d6000803e3d6000fd5b505050506040513d601f19601f820116820180604052508101906104369190611940565b10156104bd5760405162461bcd60e51b815260206004820152604a60248201527f546f6b656e56657374696e673a2063616e6e6f7420637265617465207665737460448201527f696e67207363686564756c652062656361757365206e6f742073756666696369606482015269656e7420746f6b656e7360b01b608482015260a4016103ca565b600084116105185760405162461bcd60e51b815260206004820152602260248201527f546f6b656e56657374696e673a206475726174696f6e206d757374206265203e604482015261020360f41b60648201526084016103ca565b600081116105685760405162461bcd60e51b815260206004820181905260248201527f546f6b656e56657374696e673a20616d6f756e74206d757374206265203e203060448201526064016103ca565b60018310156105cf5760405162461bcd60e51b815260206004820152602d60248201527f546f6b656e56657374696e673a20736c696365506572696f645365636f6e647360448201526c206d757374206265203e3d203160981b60648201526084016103ca565b604051630f7c469f60e41b81526001600160a01b0388166004820152600090309063f7c469f090602401602060405180830381865afa158015610616573d6000803e3d6000fd5b505050506040513d601f19601f8201168201806040525081019061063a9190611940565b9050600061064888886113c3565b90506040518061014001604052806001151581526020018a6001600160a01b03168152602001828152602001898152602001878152602001868152602001851515815260200184815260200160008152602001600015158152506003600084815260200190815260200160002060008201518160000160006101000a81548160ff02191690831515021790555060208201518160000160016101000a8154816001600160a01b0302191690836001600160a01b0316021790555060408201518160010155606082015181600201556080820151816003015560a0820151816004015560c08201518160050160006101000a81548160ff02191690831515021790555060e0820151816006015561010082015181600701556101208201518160080160006101000a81548160ff021916908315150217905550905050610798836004546113c390919063ffffffff16565b6004556002805460018181019092557f405787fa12a823e0f2b7631cc41b3ba8828b3321ca811111fa75cd3aa3bb5ace018390556001600160a01b038a16600090815260056020526040902054906107f19082906113c3565b6001600160a01b03909a16600090815260056020526040902099909955505050505050505050565b6002600154141561086c5760405162461bcd60e51b815260206004820152601f60248201527f5265656e7472616e637947756172643a207265656e7472616e742063616c6c0060448201526064016103ca565b60026001556000546001600160a01b0316331461089b5760405162461bcd60e51b81526004016103ca9061190b565b80306001600160a01b03166390be10cc6040518163ffffffff1660e01b8152600401602060405180830381865afa1580156108da573d6000803e3d6000fd5b505050506040513d601f19601f820116820180604052508101906108fe9190611940565b10156109605760405162461bcd60e51b815260206004820152602b60248201527f546f6b656e56657374696e673a206e6f7420656e6f756768207769746864726160448201526a7761626c652066756e647360a81b60648201526084016103ca565b6109a66109756000546001600160a01b031690565b6001600160a01b037f00000000000000000000000000000000000000000000000000000000000000001690836113cf565b5060018055565b60026001541415610a005760405162461bcd60e51b815260206004820152601f60248201527f5265656e7472616e637947756172643a207265656e7472616e742063616c6c0060448201526064016103ca565b60026001908155600083815260036020526040902054839160ff909116151514610a2957600080fd5b60008181526003602052604090206008015460ff1615610a4857600080fd5b6000838152600360205260408120805491549091336001600160a01b03610100909204821681149291909116148180610a7e5750805b610afb5760405162461bcd60e51b815260206004820152604260248201527f546f6b656e56657374696e673a206f6e6c792062656e6566696369617279206160448201527f6e64206f776e65722063616e2072656c656173652076657374656420746f6b656064820152616e7360f01b608482015260a4016103ca565b6040805161014081018252845460ff808216151583526001600160a01b03610100928390041660208401526001870154938301939093526002860154606083015260038601546080830152600486015460a083015260058601548316151560c0830152600686015460e083015260078601549082015260088501549091161515610120820152600090610b8d90611426565b905085811015610c055760405162461bcd60e51b815260206004820152603d60248201527f546f6b656e56657374696e673a2063616e6e6f742072656c6561736520746f6b60448201527f656e732c206e6f7420656e6f7567682076657374656420746f6b656e7300000060648201526084016103ca565b6007840154610c1490876113c3565b600785015583546004546101009091046001600160a01b031690610c389088611509565b600455610c6f6001600160a01b037f00000000000000000000000000000000000000000000000000000000000000001682896113cf565b505060018055505050505050565b6000546001600160a01b03163314610ca75760405162461bcd60e51b81526004016103ca9061190b565b600080546040516001600160a01b03909116907f8be0079c531659141344cd1fd0a4f28419497f9722a3daafe3b4186f6b6457e0908390a3600080546001600160a01b0319169055565b610cf961170a565b6001600160a01b03821660009081526005602052604081205460039190610d289085906102889060019061196f565b81526020808201929092526040908101600020815161014081018352815460ff808216151583526001600160a01b036101009283900416958301959095526001830154938201939093526002820154606082015260038201546080820152600482015460a082015260058201548416151560c0820152600682015460e082015260078201549281019290925260080154909116151561012082015292915050565b6040516bffffffffffffffffffffffff19606084901b1660208201526034810182905260009060540160405160208183030381529060405280519060200120905092915050565b600480546040516370a0823160e01b81523092810192909252600091610eac91906001600160a01b037f000000000000000000000000000000000000000000000000000000000000000016906370a0823190602401602060405180830381865afa158015610e82573d6000803e3d6000fd5b505050506040513d601f19601f82011682018060405250810190610ea69190611940565b90611509565b905090565b610eb961170a565b50600090815260036020818152604092839020835161014081018552815460ff808216151583526001600160a01b0361010092839004169483019490945260018301549582019590955260028201546060820152928101546080840152600481015460a084015260058101548216151560c0840152600681015460e0840152600781015493830193909352600890920154909116151561012082015290565b6000546001600160a01b03163314610f825760405162461bcd60e51b81526004016103ca9061190b565b600081815260036020526040902054819060ff161515600114610fa457600080fd5b60008181526003602052604090206008015460ff1615610fc357600080fd5b6000828152600360205260409020600581015460ff1615156001146110395760405162461bcd60e51b815260206004820152602660248201527f546f6b656e56657374696e673a2076657374696e67206973206e6f74207265766044820152656f6361626c6560d01b60648201526084016103ca565b6040805161014081018252825460ff808216151583526001600160a01b03610100928390041660208401526001850154938301939093526002840154606083015260038401546080830152600484015460a083015260058401548316151560c0830152600684015460e0830152600784015490820152600883015490911615156101208201526000906110cb90611426565b905080156110dd576110dd84826109ad565b60006110fa8360070154846006015461150990919063ffffffff16565b60045490915061110a9082611509565b6004555050600801805460ff191660011790555050565b600081815260036020526040812054829060ff16151560011461114357600080fd5b60008181526003602052604090206008015460ff161561116257600080fd5b600083815260036020818152604092839020835161014081018552815460ff808216151583526001600160a01b0361010092839004169483019490945260018301549582019590955260028201546060820152928101546080840152600481015460a084015260058101548216151560c0840152600681015460e0840152600781015493830193909352600883015416151561012082015261120390611426565b949350505050565b6000546001600160a01b031633146112355760405162461bcd60e51b81526004016103ca9061190b565b6001600160a01b03811661129a5760405162461bcd60e51b815260206004820152602660248201527f4f776e61626c653a206e6577206f776e657220697320746865207a65726f206160448201526564647265737360d01b60648201526084016103ca565b600080546040516001600160a01b03808516939216917f8be0079c531659141344cd1fd0a4f28419497f9722a3daafe3b4186f6b6457e091a3600080546001600160a01b0319166001600160a01b0392909216919091179055565b6112fd61170a565b61130a6102db8484610dc9565b9392505050565b6001600160a01b038116600090815260056020526040812054611335908390610dc9565b92915050565b600061134660025490565b821061139e5760405162461bcd60e51b815260206004820152602160248201527f546f6b656e56657374696e673a20696e646578206f7574206f6620626f756e646044820152607360f81b60648201526084016103ca565b600282815481106113b1576113b1611986565b90600052602060002001549050919050565b600061130a828461199c565b604080516001600160a01b038416602482015260448082018490528251808303909101815260649091019091526020810180516001600160e01b031663a9059cbb60e01b179052611421908490611515565b505050565b60408101516000904290811080611444575061012083015115156001145b156114525750600092915050565b60808301516060840151611465916113c3565b811061147f5761010083015160e084015161130a91611509565b600061149884606001518361150990919063ffffffff16565b60a085015190915060006114ac83836115e7565b905060006114ba82846115f3565b905060006114e388608001516114dd848b60e001516115f390919063ffffffff16565b906115e7565b90506114fd8861010001518261150990919063ffffffff16565b98975050505050505050565b600061130a828461196f565b600061156a826040518060400160405280602081526020017f5361666545524332303a206c6f772d6c6576656c2063616c6c206661696c6564815250856001600160a01b03166115ff9092919063ffffffff16565b805190915015611421578080602001905181019061158891906119b4565b6114215760405162461bcd60e51b815260206004820152602a60248201527f5361666545524332303a204552433230206f7065726174696f6e20646964206e6044820152691bdd081cdd58d8d9595960b21b60648201526084016103ca565b600061130a82846119d1565b600061130a82846119f3565b6060611203848460008585843b6116585760405162461bcd60e51b815260206004820152601d60248201527f416464726573733a2063616c6c20746f206e6f6e2d636f6e747261637400000060448201526064016103ca565b600080866001600160a01b031685876040516116749190611a42565b60006040518083038185875af1925050503d80600081146116b1576040519150601f19603f3d011682016040523d82523d6000602084013e6116b6565b606091505b50915091506116c68282866116d1565b979650505050505050565b606083156116e057508161130a565b8251156116f05782518084602001fd5b8160405162461bcd60e51b81526004016103ca9190611a5e565b60405180610140016040528060001515815260200160006001600160a01b031681526020016000815260200160008152602001600081526020016000815260200160001515815260200160008152602001600081526020016000151581525090565b80356001600160a01b038116811461178357600080fd5b919050565b801515811461179657600080fd5b50565b600080600080600080600060e0888a0312156117b457600080fd5b6117bd8861176c565b96506020880135955060408801359450606088013593506080880135925060a08801356117e981611788565b8092505060c0880135905092959891949750929550565b60006020828403121561181257600080fd5b5035919050565b60006020828403121561182b57600080fd5b61130a8261176c565b6000806040838503121561184757600080fd5b50508035926020909101359150565b8151151581526101408101602083015161187b60208401826001600160a01b03169052565b5060408301516040830152606083015160608301526080830151608083015260a083015160a083015260c08301516118b760c084018215159052565b5060e083810151908301526101008084015190830152610120928301511515929091019190915290565b600080604083850312156118f457600080fd5b6118fd8361176c565b946020939093013593505050565b6020808252818101527f4f776e61626c653a2063616c6c6572206973206e6f7420746865206f776e6572604082015260600190565b60006020828403121561195257600080fd5b5051919050565b634e487b7160e01b600052601160045260246000fd5b60008282101561198157611981611959565b500390565b634e487b7160e01b600052603260045260246000fd5b600082198211156119af576119af611959565b500190565b6000602082840312156119c657600080fd5b815161130a81611788565b6000826119ee57634e487b7160e01b600052601260045260246000fd5b500490565b6000816000190483118215151615611a0d57611a0d611959565b500290565b60005b83811015611a2d578181015183820152602001611a15565b83811115611a3c576000848401525b50505050565b60008251611a54818460208701611a12565b9190910192915050565b6020815260008251806020840152611a7d816040850160208701611a12565b601f01601f1916919091016040019291505056fea26469706673582212206d9a66b205675f85fb0e480c65c3fd9f2eac55d04b25ab78cb8224135e4f007e64736f6c634300080b0033",
  "linkReferences": {},
  "deployedLinkReferences": {}
}