{
  "_format": "hh-sol-artifact-1",
  "contractName": "MockTokenVesting",
  "sourceName": "contracts/token/vesting/MockTokenVesting.sol",
  "abi": [
    {
      "inputs": [
        {
          "internalType": "address",
          "name": "token_",
          "type": "address"
        }
      ],
      "stateMutability": "nonpayable",
      "type": "constructor"
    },
    {
      "anonymous": false,
      "inputs": [
        {
          "indexed": true,
          "internalType": "address",
          "name": "previousOwner",
          "type": "address"
        },
        {
          "indexed": true,
          "internalType": "address",
          "name": "newOwner",
          "type": "address"
        }
      ],
      "name": "OwnershipTransferred",
      "type": "event"
    },
    {
      "anonymous": false,
      "inputs": [
        {
          "indexed": false,
          "internalType": "uint256",
          "name": "amount",
          "type": "uint256"
        }
      ],
      "name": "Released",
      "type": "event"
    },
    {
      "anonymous": false,
      "inputs": [],
      "name": "Revoked",
      "type": "event"
    },
    {
      "stateMutability": "payable",
      "type": "fallback"
    },
    {
      "inputs": [
        {
          "internalType": "address",
          "name": "holder",
          "type": "address"
        }
      ],
      "name": "computeNextVestingScheduleIdForHolder",
      "outputs": [
        {
          "internalType": "bytes32",
          "name": "",
          "type": "bytes32"
        }
      ],
      "stateMutability": "view",
      "type": "function"
    },
    {
      "inputs": [
        {
          "internalType": "bytes32",
          "name": "vestingScheduleId",
          "type": "bytes32"
        }
      ],
      "name": "computeReleasableAmount",
      "outputs": [
        {
          "internalType": "uint256",
          "name": "",
          "type": "uint256"
        }
      ],
      "stateMutability": "view",
      "type": "function"
    },
    {
      "inputs": [
        {
          "internalType": "address",
          "name": "holder",
          "type": "address"
        },
        {
          "internalType": "uint256",
          "name": "index",
          "type": "uint256"
        }
      ],
      "name": "computeVestingScheduleIdForAddressAndIndex",
      "outputs": [
        {
          "internalType": "bytes32",
          "name": "",
          "type": "bytes32"
        }
      ],
      "stateMutability": "pure",
      "type": "function"
    },
    {
      "inputs": [
        {
          "internalType": "address",
          "name": "_beneficiary",
          "type": "address"
        },
        {
          "internalType": "uint256",
          "name": "_start",
          "type": "uint256"
        },
        {
          "internalType": "uint256",
          "name": "_cliff",
          "type": "uint256"
        },
        {
          "internalType": "uint256",
          "name": "_duration",
          "type": "uint256"
        },
        {
          "internalType": "uint256",
          "name": "_slicePeriodSeconds",
          "type": "uint256"
        },
        {
          "internalType": "bool",
          "name": "_revocable",
          "type": "bool"
        },
        {
          "internalType": "uint256",
          "name": "_amount",
          "type": "uint256"
        }
      ],
      "name": "createVestingSchedule",
      "outputs": [],
      "stateMutability": "nonpayable",
      "type": "function"
    },
    {
      "inputs": [
        {
          "internalType": "address",
          "name": "holder",
          "type": "address"
        }
      ],
      "name": "getLastVestingScheduleForHolder",
      "outputs": [
        {
          "components": [
            {
              "internalType": "bool",
              "name": "initialized",
              "type": "bool"
            },
            {
              "internalType": "address",
              "name": "beneficiary",
              "type": "address"
            },
            {
              "internalType": "uint256",
              "name": "cliff",
              "type": "uint256"
            },
            {
              "internalType": "uint256",
              "name": "start",
              "type": "uint256"
            },
            {
              "internalType": "uint256",
              "name": "duration",
              "type": "uint256"
            },
            {
              "internalType": "uint256",
              "name": "slicePeriodSeconds",
              "type": "uint256"
            },
            {
              "internalType": "bool",
              "name": "revocable",
              "type": "bool"
            },
            {
              "internalType": "uint256",
              "name": "amountTotal",
              "type": "uint256"
            },
            {
              "internalType": "uint256",
              "name": "released",
              "type": "uint256"
            },
            {
              "internalType": "bool",
              "name": "revoked",
              "type": "bool"
            }
          ],
          "internalType": "struct TokenVesting.VestingSchedule",
          "name": "",
          "type": "tuple"
        }
      ],
      "stateMutability": "view",
      "type": "function"
    },
    {
      "inputs": [],
      "name": "getToken",
      "outputs": [
        {
          "internalType": "address",
          "name": "",
          "type": "address"
        }
      ],
      "stateMutability": "view",
      "type": "function"
    },
    {
      "inputs": [
        {
          "internalType": "uint256",
          "name": "index",
          "type": "uint256"
        }
      ],
      "name": "getVestingIdAtIndex",
      "outputs": [
        {
          "internalType": "bytes32",
          "name": "",
          "type": "bytes32"
        }
      ],
      "stateMutability": "view",
      "type": "function"
    },
    {
      "inputs": [
        {
          "internalType": "bytes32",
          "name": "vestingScheduleId",
          "type": "bytes32"
        }
      ],
      "name": "getVestingSchedule",
      "outputs": [
        {
          "components": [
            {
              "internalType": "bool",
              "name": "initialized",
              "type": "bool"
            },
            {
              "internalType": "address",
              "name": "beneficiary",
              "type": "address"
            },
            {
              "internalType": "uint256",
              "name": "cliff",
              "type": "uint256"
            },
            {
              "internalType": "uint256",
              "name": "start",
              "type": "uint256"
            },
            {
              "internalType": "uint256",
              "name": "duration",
              "type": "uint256"
            },
            {
              "internalType": "uint256",
              "name": "slicePeriodSeconds",
              "type": "uint256"
            },
            {
              "internalType": "bool",
              "name": "revocable",
              "type": "bool"
            },
            {
              "internalType": "uint256",
              "name": "amountTotal",
              "type": "uint256"
            },
            {
              "internalType": "uint256",
              "name": "released",
              "type": "uint256"
            },
            {
              "internalType": "bool",
              "name": "revoked",
              "type": "bool"
            }
          ],
          "internalType": "struct TokenVesting.VestingSchedule",
          "name": "",
          "type": "tuple"
        }
      ],
      "stateMutability": "view",
      "type": "function"
    },
    {
      "inputs": [
        {
          "internalType": "address",
          "name": "holder",
          "type": "address"
        },
        {
          "internalType": "uint256",
          "name": "index",
          "type": "uint256"
        }
      ],
      "name": "getVestingScheduleByAddressAndIndex",
      "outputs": [
        {
          "components": [
            {
              "internalType": "bool",
              "name": "initialized",
              "type": "bool"
            },
            {
              "internalType": "address",
              "name": "beneficiary",
              "type": "address"
            },
            {
              "internalType": "uint256",
              "name": "cliff",
              "type": "uint256"
            },
            {
              "internalType": "uint256",
              "name": "start",
              "type": "uint256"
            },
            {
              "internalType": "uint256",
              "name": "duration",
              "type": "uint256"
            },
            {
              "internalType": "uint256",
              "name": "slicePeriodSeconds",
              "type": "uint256"
            },
            {
              "internalType": "bool",
              "name": "revocable",
              "type": "bool"
            },
            {
              "internalType": "uint256",
              "name": "amountTotal",
              "type": "uint256"
            },
            {
              "internalType": "uint256",
              "name": "released",
              "type": "uint256"
            },
            {
              "internalType": "bool",
              "name": "revoked",
              "type": "bool"
            }
          ],
          "internalType": "struct TokenVesting.VestingSchedule",
          "name": "",
          "type": "tuple"
        }
      ],
      "stateMutability": "view",
      "type": "function"
    },
    {
      "inputs": [],
      "name": "getVestingSchedulesCount",
      "outputs": [
        {
          "internalType": "uint256",
          "name": "",
          "type": "uint256"
        }
      ],
      "stateMutability": "view",
      "type": "function"
    },
    {
      "inputs": [
        {
          "internalType": "address",
          "name": "_beneficiary",
          "type": "address"
        }
      ],
      "name": "getVestingSchedulesCountByBeneficiary",
      "outputs": [
        {
          "internalType": "uint256",
          "name": "",
          "type": "uint256"
        }
      ],
      "stateMutability": "view",
      "type": "function"
    },
    {
      "inputs": [],
      "name": "getVestingSchedulesTotalAmount",
      "outputs": [
        {
          "internalType": "uint256",
          "name": "",
          "type": "uint256"
        }
      ],
      "stateMutability": "view",
      "type": "function"
    },
    {
      "inputs": [],
      "name": "getWithdrawableAmount",
      "outputs": [
        {
          "internalType": "uint256",
          "name": "",
          "type": "uint256"
        }
      ],
      "stateMutability": "view",
      "type": "function"
    },
    {
      "inputs": [],
      "name": "owner",
      "outputs": [
        {
          "internalType": "address",
          "name": "",
          "type": "address"
        }
      ],
      "stateMutability": "view",
      "type": "function"
    },
    {
      "inputs": [
        {
          "internalType": "bytes32",
          "name": "vestingScheduleId",
          "type": "bytes32"
        },
        {
          "internalType": "uint256",
          "name": "amount",
          "type": "uint256"
        }
      ],
      "name": "release",
      "outputs": [],
      "stateMutability": "nonpayable",
      "type": "function"
    },
    {
      "inputs": [
        {
          "internalType": "address",
          "name": "beneficiaryPayable",
          "type": "address"
        },
        {
          "internalType": "uint256",
          "name": "amount",
          "type": "uint256"
        }
      ],
      "name": "releaseMock",
      "outputs": [],
      "stateMutability": "nonpayable",
      "type": "function"
    },
    {
      "inputs": [],
      "name": "renounceOwnership",
      "outputs": [],
      "stateMutability": "nonpayable",
      "type": "function"
    },
    {
      "inputs": [
        {
          "internalType": "bytes32",
          "name": "vestingScheduleId",
          "type": "bytes32"
        }
      ],
      "name": "revoke",
      "outputs": [],
      "stateMutability": "nonpayable",
      "type": "function"
    },
    {
      "inputs": [
        {
          "internalType": "uint256",
          "name": "_time",
          "type": "uint256"
        }
      ],
      "name": "setCurrentTime",
      "outputs": [],
      "stateMutability": "nonpayable",
      "type": "function"
    },
    {
      "inputs": [
        {
          "internalType": "address",
          "name": "newOwner",
          "type": "address"
        }
      ],
      "name": "transferOwnership",
      "outputs": [],
      "stateMutability": "nonpayable",
      "type": "function"
    },
    {
      "inputs": [
        {
          "internalType": "uint256",
          "name": "amount",
          "type": "uint256"
        }
      ],
      "name": "withdraw",
      "outputs": [],
      "stateMutability": "nonpayable",
      "type": "function"
    },
    {
      "stateMutability": "payable",
      "type": "receive"
    }
  ],
  "bytecode": "0x60c0604052600060065534801561001557600080fd5b50604051611cc6380380611cc6833981016040819052610034916100a3565b600080546001600160a01b031916339081178255604051839282917f8be0079c531659141344cd1fd0a4f28419497f9722a3daafe3b4186f6b6457e0908290a350600180556001600160a01b03811661008c57600080fd5b6001600160a01b039081166080521660a0526100d3565b6000602082840312156100b557600080fd5b81516001600160a01b03811681146100cc57600080fd5b9392505050565b60805160a051611bb961010d600039600061119d01526000818161017e015281816109d501528181610c9e0152610e910152611bb96000f3fe6080604052600436106101225760003560e01c80638af104da116100a5578063cb12b8e51161006c578063cb12b8e514610336578063ea1bb3d514610356578063f2fde38b14610376578063f51321d714610396578063f7c469f0146103b6578063f9079b37146103d657005b80638af104da146102a35780638da5cb5b146102c357806390be10cc146102e15780639ef346b4146102f6578063b75c7dc61461031657005b806348deb471116100e957806348deb471146101f65780635a7bb69a1461020b57806366afd8ef14610241578063715018a6146102615780637e913dc61461027657005b8063130836171461012b57806317e289e91461014f57806321df0da71461016f57806322f8e566146101b65780632e1a7d4d146101d657005b3661012957005b005b34801561013757600080fd5b506002545b6040519081526020015b60405180910390f35b34801561015b57600080fd5b5061012961016a36600461188b565b6103f6565b34801561017b57600080fd5b507f00000000000000000000000000000000000000000000000000000000000000005b6040516001600160a01b039091168152602001610146565b3480156101c257600080fd5b506101296101d13660046118f2565b600655565b3480156101e257600080fd5b506101296101f13660046118f2565b61086f565b34801561020257600080fd5b5060045461013c565b34801561021757600080fd5b5061013c61022636600461190b565b6001600160a01b031660009081526005602052604090205490565b34801561024d57600080fd5b5061012961025c366004611926565b610a03565b34801561026d57600080fd5b50610129610cd3565b34801561028257600080fd5b5061029661029136600461190b565b610d47565b6040516101469190611948565b3480156102af57600080fd5b5061013c6102be3660046119d3565b610e1f565b3480156102cf57600080fd5b506000546001600160a01b031661019e565b3480156102ed57600080fd5b5061013c610e66565b34801561030257600080fd5b506102966103113660046118f2565b610f07565b34801561032257600080fd5b506101296103313660046118f2565b610fae565b34801561034257600080fd5b506101296103513660046119d3565b611177565b34801561036257600080fd5b5061013c6103713660046118f2565b61120f565b34801561038257600080fd5b5061012961039136600461190b565b6112f9565b3480156103a257600080fd5b506102966103b13660046119d3565b6113e3565b3480156103c257600080fd5b5061013c6103d136600461190b565b6113ff565b3480156103e257600080fd5b5061013c6103f13660046118f2565b611429565b6000546001600160a01b031633146104295760405162461bcd60e51b8152600401610420906119fd565b60405180910390fd5b80306001600160a01b03166390be10cc6040518163ffffffff1660e01b8152600401602060405180830381865afa158015610468573d6000803e3d6000fd5b505050506040513d601f19601f8201168201806040525081019061048c9190611a32565b10156105135760405162461bcd60e51b815260206004820152604a60248201527f546f6b656e56657374696e673a2063616e6e6f7420637265617465207665737460448201527f696e67207363686564756c652062656361757365206e6f742073756666696369606482015269656e7420746f6b656e7360b01b608482015260a401610420565b6000841161056e5760405162461bcd60e51b815260206004820152602260248201527f546f6b656e56657374696e673a206475726174696f6e206d757374206265203e604482015261020360f41b6064820152608401610420565b600081116105be5760405162461bcd60e51b815260206004820181905260248201527f546f6b656e56657374696e673a20616d6f756e74206d757374206265203e20306044820152606401610420565b60018310156106255760405162461bcd60e51b815260206004820152602d60248201527f546f6b656e56657374696e673a20736c696365506572696f645365636f6e647360448201526c206d757374206265203e3d203160981b6064820152608401610420565b604051630f7c469f60e41b81526001600160a01b0388166004820152600090309063f7c469f090602401602060405180830381865afa15801561066c573d6000803e3d6000fd5b505050506040513d601f19601f820116820180604052508101906106909190611a32565b9050600061069e88886114b1565b90506040518061014001604052806001151581526020018a6001600160a01b03168152602001828152602001898152602001878152602001868152602001851515815260200184815260200160008152602001600015158152506003600084815260200190815260200160002060008201518160000160006101000a81548160ff02191690831515021790555060208201518160000160016101000a8154816001600160a01b0302191690836001600160a01b0316021790555060408201518160010155606082015181600201556080820151816003015560a0820151816004015560c08201518160050160006101000a81548160ff02191690831515021790555060e0820151816006015561010082015181600701556101208201518160080160006101000a81548160ff0219169083151502179055509050506107ee836004546114b190919063ffffffff16565b6004556002805460018181019092557f405787fa12a823e0f2b7631cc41b3ba8828b3321ca811111fa75cd3aa3bb5ace018390556001600160a01b038a16600090815260056020526040902054906108479082906114b1565b6001600160a01b03909a16600090815260056020526040902099909955505050505050505050565b600260015414156108c25760405162461bcd60e51b815260206004820152601f60248201527f5265656e7472616e637947756172643a207265656e7472616e742063616c6c006044820152606401610420565b60026001556000546001600160a01b031633146108f15760405162461bcd60e51b8152600401610420906119fd565b80306001600160a01b03166390be10cc6040518163ffffffff1660e01b8152600401602060405180830381865afa158015610930573d6000803e3d6000fd5b505050506040513d601f19601f820116820180604052508101906109549190611a32565b10156109b65760405162461bcd60e51b815260206004820152602b60248201527f546f6b656e56657374696e673a206e6f7420656e6f756768207769746864726160448201526a7761626c652066756e647360a81b6064820152608401610420565b6109fc6109cb6000546001600160a01b031690565b6001600160a01b037f00000000000000000000000000000000000000000000000000000000000000001690836114bd565b5060018055565b60026001541415610a565760405162461bcd60e51b815260206004820152601f60248201527f5265656e7472616e637947756172643a207265656e7472616e742063616c6c006044820152606401610420565b60026001908155600083815260036020526040902054839160ff909116151514610a7f57600080fd5b60008181526003602052604090206008015460ff1615610a9e57600080fd5b6000838152600360205260408120805491549091336001600160a01b03610100909204821681149291909116148180610ad45750805b610b515760405162461bcd60e51b815260206004820152604260248201527f546f6b656e56657374696e673a206f6e6c792062656e6566696369617279206160448201527f6e64206f776e65722063616e2072656c656173652076657374656420746f6b656064820152616e7360f01b608482015260a401610420565b6040805161014081018252845460ff808216151583526001600160a01b03610100928390041660208401526001870154938301939093526002860154606083015260038601546080830152600486015460a083015260058601548316151560c0830152600686015460e083015260078601549082015260088501549091161515610120820152600090610be39061150f565b905085811015610c5b5760405162461bcd60e51b815260206004820152603d60248201527f546f6b656e56657374696e673a2063616e6e6f742072656c6561736520746f6b60448201527f656e732c206e6f7420656e6f7567682076657374656420746f6b656e730000006064820152608401610420565b6007840154610c6a90876114b1565b600785015583546004546101009091046001600160a01b031690610c8e90886115fb565b600455610cc56001600160a01b037f00000000000000000000000000000000000000000000000000000000000000001682896114bd565b505060018055505050505050565b6000546001600160a01b03163314610cfd5760405162461bcd60e51b8152600401610420906119fd565b600080546040516001600160a01b03909116907f8be0079c531659141344cd1fd0a4f28419497f9722a3daafe3b4186f6b6457e0908390a3600080546001600160a01b0319169055565b610d4f6117fc565b6001600160a01b03821660009081526005602052604081205460039190610d7e9085906102be90600190611a61565b81526020808201929092526040908101600020815161014081018352815460ff808216151583526001600160a01b036101009283900416958301959095526001830154938201939093526002820154606082015260038201546080820152600482015460a082015260058201548416151560c0820152600682015460e082015260078201549281019290925260080154909116151561012082015292915050565b6040516bffffffffffffffffffffffff19606084901b1660208201526034810182905260009060540160405160208183030381529060405280519060200120905092915050565b600480546040516370a0823160e01b81523092810192909252600091610f0291906001600160a01b037f000000000000000000000000000000000000000000000000000000000000000016906370a0823190602401602060405180830381865afa158015610ed8573d6000803e3d6000fd5b505050506040513d601f19601f82011682018060405250810190610efc9190611a32565b906115fb565b905090565b610f0f6117fc565b50600090815260036020818152604092839020835161014081018552815460ff808216151583526001600160a01b0361010092839004169483019490945260018301549582019590955260028201546060820152928101546080840152600481015460a084015260058101548216151560c0840152600681015460e0840152600781015493830193909352600890920154909116151561012082015290565b6000546001600160a01b03163314610fd85760405162461bcd60e51b8152600401610420906119fd565b600081815260036020526040902054819060ff161515600114610ffa57600080fd5b60008181526003602052604090206008015460ff161561101957600080fd5b6000828152600360205260409020600581015460ff16151560011461108f5760405162461bcd60e51b815260206004820152602660248201527f546f6b656e56657374696e673a2076657374696e67206973206e6f74207265766044820152656f6361626c6560d01b6064820152608401610420565b6040805161014081018252825460ff808216151583526001600160a01b03610100928390041660208401526001850154938301939093526002840154606083015260038401546080830152600484015460a083015260058401548316151560c0830152600684015460e0830152600784015490820152600883015490911615156101208201526000906111219061150f565b90508015611133576111338482610a03565b6000611150836007015484600601546115fb90919063ffffffff16565b60045490915061116090826115fb565b6004555050600801805460ff191660011790555050565b60405163a9059cbb60e01b81526001600160a01b038381166004830152602482018390527f0000000000000000000000000000000000000000000000000000000000000000169063a9059cbb906044016020604051808303816000875af11580156111e6573d6000803e3d6000fd5b505050506040513d601f19601f8201168201806040525081019061120a9190611a78565b505050565b600081815260036020526040812054829060ff16151560011461123157600080fd5b60008181526003602052604090206008015460ff161561125057600080fd5b600083815260036020818152604092839020835161014081018552815460ff808216151583526001600160a01b0361010092839004169483019490945260018301549582019590955260028201546060820152928101546080840152600481015460a084015260058101548216151560c0840152600681015460e084015260078101549383019390935260088301541615156101208201526112f19061150f565b949350505050565b6000546001600160a01b031633146113235760405162461bcd60e51b8152600401610420906119fd565b6001600160a01b0381166113885760405162461bcd60e51b815260206004820152602660248201527f4f776e61626c653a206e6577206f776e657220697320746865207a65726f206160448201526564647265737360d01b6064820152608401610420565b600080546040516001600160a01b03808516939216917f8be0079c531659141344cd1fd0a4f28419497f9722a3daafe3b4186f6b6457e091a3600080546001600160a01b0319166001600160a01b0392909216919091179055565b6113eb6117fc565b6113f86103118484610e1f565b9392505050565b6001600160a01b038116600090815260056020526040812054611423908390610e1f565b92915050565b600061143460025490565b821061148c5760405162461bcd60e51b815260206004820152602160248201527f546f6b656e56657374696e673a20696e646578206f7574206f6620626f756e646044820152607360f81b6064820152608401610420565b6002828154811061149f5761149f611a95565b90600052602060002001549050919050565b60006113f88284611aab565b604080516001600160a01b038416602482015260448082018490528251808303909101815260649091019091526020810180516001600160e01b031663a9059cbb60e01b17905261120a908490611607565b60008061151b60065490565b90508260400151811080611536575061012083015115156001145b156115445750600092915050565b60808301516060840151611557916114b1565b81106115715761010083015160e08401516113f8916115fb565b600061158a8460600151836115fb90919063ffffffff16565b60a0850151909150600061159e83836116d9565b905060006115ac82846116e5565b905060006115d588608001516115cf848b60e001516116e590919063ffffffff16565b906116d9565b90506115ef886101000151826115fb90919063ffffffff16565b98975050505050505050565b60006113f88284611a61565b600061165c826040518060400160405280602081526020017f5361666545524332303a206c6f772d6c6576656c2063616c6c206661696c6564815250856001600160a01b03166116f19092919063ffffffff16565b80519091501561120a578080602001905181019061167a9190611a78565b61120a5760405162461bcd60e51b815260206004820152602a60248201527f5361666545524332303a204552433230206f7065726174696f6e20646964206e6044820152691bdd081cdd58d8d9595960b21b6064820152608401610420565b60006113f88284611ac3565b60006113f88284611ae5565b60606112f1848460008585843b61174a5760405162461bcd60e51b815260206004820152601d60248201527f416464726573733a2063616c6c20746f206e6f6e2d636f6e74726163740000006044820152606401610420565b600080866001600160a01b031685876040516117669190611b34565b60006040518083038185875af1925050503d80600081146117a3576040519150601f19603f3d011682016040523d82523d6000602084013e6117a8565b606091505b50915091506117b88282866117c3565b979650505050505050565b606083156117d25750816113f8565b8251156117e25782518084602001fd5b8160405162461bcd60e51b81526004016104209190611b50565b60405180610140016040528060001515815260200160006001600160a01b031681526020016000815260200160008152602001600081526020016000815260200160001515815260200160008152602001600081526020016000151581525090565b80356001600160a01b038116811461187557600080fd5b919050565b801515811461188857600080fd5b50565b600080600080600080600060e0888a0312156118a657600080fd5b6118af8861185e565b96506020880135955060408801359450606088013593506080880135925060a08801356118db8161187a565b8092505060c0880135905092959891949750929550565b60006020828403121561190457600080fd5b5035919050565b60006020828403121561191d57600080fd5b6113f88261185e565b6000806040838503121561193957600080fd5b50508035926020909101359150565b8151151581526101408101602083015161196d60208401826001600160a01b03169052565b5060408301516040830152606083015160608301526080830151608083015260a083015160a083015260c08301516119a960c084018215159052565b5060e083810151908301526101008084015190830152610120928301511515929091019190915290565b600080604083850312156119e657600080fd5b6119ef8361185e565b946020939093013593505050565b6020808252818101527f4f776e61626c653a2063616c6c6572206973206e6f7420746865206f776e6572604082015260600190565b600060208284031215611a4457600080fd5b5051919050565b634e487b7160e01b600052601160045260246000fd5b600082821015611a7357611a73611a4b565b500390565b600060208284031215611a8a57600080fd5b81516113f88161187a565b634e487b7160e01b600052603260045260246000fd5b60008219821115611abe57611abe611a4b565b500190565b600082611ae057634e487b7160e01b600052601260045260246000fd5b500490565b6000816000190483118215151615611aff57611aff611a4b565b500290565b60005b83811015611b1f578181015183820152602001611b07565b83811115611b2e576000848401525b50505050565b60008251611b46818460208701611b04565b9190910192915050565b6020815260008251806020840152611b6f816040850160208701611b04565b601f01601f1916919091016040019291505056fea26469706673582212200141f8b7c72a90ff415eafa5ca55d49c0b85ed889c274b5bcd49a70b262338de64736f6c634300080b0033",
  "linkReferences": {},
  "deployedLinkReferences": {}
}