{
  "_format": "hh-sol-artifact-1",
  "contractName": "LayTokenV2",
  "sourceName": "contracts/token/LayTokenV2.sol",
  "abi": [
    {
      "inputs": [],
      "stateMutability": "nonpayable",
      "type": "constructor"
    },
    {
      "anonymous": false,
      "inputs": [
        {
          "indexed": true,
          "internalType": "address",
          "name": "owner",
          "type": "address"
        },
        {
          "indexed": true,
          "internalType": "address",
          "name": "spender",
          "type": "address"
        },
        {
          "indexed": false,
          "internalType": "uint256",
          "name": "value",
          "type": "uint256"
        }
      ],
      "name": "Approval",
      "type": "event"
    },
    {
      "anonymous": false,
      "inputs": [
        {
          "indexed": true,
          "internalType": "address",
          "name": "delegator",
          "type": "address"
        },
        {
          "indexed": true,
          "internalType": "address",
          "name": "delegatee",
          "type": "address"
        },
        {
          "indexed": false,
          "internalType": "enum IGovernancePowerDelegationToken.DelegationType",
          "name": "delegationType",
          "type": "uint8"
        }
      ],
      "name": "DelegateChanged",
      "type": "event"
    },
    {
      "anonymous": false,
      "inputs": [
        {
          "indexed": true,
          "internalType": "address",
          "name": "user",
          "type": "address"
        },
        {
          "indexed": false,
          "internalType": "uint256",
          "name": "amount",
          "type": "uint256"
        },
        {
          "indexed": false,
          "internalType": "enum IGovernancePowerDelegationToken.DelegationType",
          "name": "delegationType",
          "type": "uint8"
        }
      ],
      "name": "DelegatedPowerChanged",
      "type": "event"
    },
    {
      "anonymous": false,
      "inputs": [
        {
          "indexed": true,
          "internalType": "address",
          "name": "from",
          "type": "address"
        },
        {
          "indexed": true,
          "internalType": "address",
          "name": "to",
          "type": "address"
        },
        {
          "indexed": false,
          "internalType": "uint256",
          "name": "value",
          "type": "uint256"
        }
      ],
      "name": "Transfer",
      "type": "event"
    },
    {
      "inputs": [],
      "name": "DELEGATE_BY_TYPE_TYPEHASH",
      "outputs": [
        {
          "internalType": "bytes32",
          "name": "",
          "type": "bytes32"
        }
      ],
      "stateMutability": "view",
      "type": "function"
    },
    {
      "inputs": [],
      "name": "DELEGATE_TYPEHASH",
      "outputs": [
        {
          "internalType": "bytes32",
          "name": "",
          "type": "bytes32"
        }
      ],
      "stateMutability": "view",
      "type": "function"
    },
    {
      "inputs": [],
      "name": "DOMAIN_SEPARATOR",
      "outputs": [
        {
          "internalType": "bytes32",
          "name": "",
          "type": "bytes32"
        }
      ],
      "stateMutability": "view",
      "type": "function"
    },
    {
      "inputs": [],
      "name": "EIP712_REVISION",
      "outputs": [
        {
          "internalType": "bytes",
          "name": "",
          "type": "bytes"
        }
      ],
      "stateMutability": "view",
      "type": "function"
    },
    {
      "inputs": [],
      "name": "PERMIT_TYPEHASH",
      "outputs": [
        {
          "internalType": "bytes32",
          "name": "",
          "type": "bytes32"
        }
      ],
      "stateMutability": "view",
      "type": "function"
    },
    {
      "inputs": [],
      "name": "REVISION",
      "outputs": [
        {
          "internalType": "uint256",
          "name": "",
          "type": "uint256"
        }
      ],
      "stateMutability": "view",
      "type": "function"
    },
    {
      "inputs": [],
      "name": "_layGovernance",
      "outputs": [
        {
          "internalType": "contract ITransferHook",
          "name": "",
          "type": "address"
        }
      ],
      "stateMutability": "view",
      "type": "function"
    },
    {
      "inputs": [
        {
          "internalType": "address",
          "name": "",
          "type": "address"
        }
      ],
      "name": "_nonces",
      "outputs": [
        {
          "internalType": "uint256",
          "name": "",
          "type": "uint256"
        }
      ],
      "stateMutability": "view",
      "type": "function"
    },
    {
      "inputs": [
        {
          "internalType": "address",
          "name": "",
          "type": "address"
        },
        {
          "internalType": "uint256",
          "name": "",
          "type": "uint256"
        }
      ],
      "name": "_votingSnapshots",
      "outputs": [
        {
          "internalType": "uint128",
          "name": "blockNumber",
          "type": "uint128"
        },
        {
          "internalType": "uint128",
          "name": "value",
          "type": "uint128"
        }
      ],
      "stateMutability": "view",
      "type": "function"
    },
    {
      "inputs": [
        {
          "internalType": "address",
          "name": "",
          "type": "address"
        }
      ],
      "name": "_votingSnapshotsCounts",
      "outputs": [
        {
          "internalType": "uint256",
          "name": "",
          "type": "uint256"
        }
      ],
      "stateMutability": "view",
      "type": "function"
    },
    {
      "inputs": [
        {
          "internalType": "address",
          "name": "owner",
          "type": "address"
        },
        {
          "internalType": "address",
          "name": "spender",
          "type": "address"
        }
      ],
      "name": "allowance",
      "outputs": [
        {
          "internalType": "uint256",
          "name": "",
          "type": "uint256"
        }
      ],
      "stateMutability": "view",
      "type": "function"
    },
    {
      "inputs": [
        {
          "internalType": "address",
          "name": "spender",
          "type": "address"
        },
        {
          "internalType": "uint256",
          "name": "amount",
          "type": "uint256"
        }
      ],
      "name": "approve",
      "outputs": [
        {
          "internalType": "bool",
          "name": "",
          "type": "bool"
        }
      ],
      "stateMutability": "nonpayable",
      "type": "function"
    },
    {
      "inputs": [
        {
          "internalType": "address",
          "name": "account",
          "type": "address"
        }
      ],
      "name": "balanceOf",
      "outputs": [
        {
          "internalType": "uint256",
          "name": "",
          "type": "uint256"
        }
      ],
      "stateMutability": "view",
      "type": "function"
    },
    {
      "inputs": [],
      "name": "decimals",
      "outputs": [
        {
          "internalType": "uint8",
          "name": "",
          "type": "uint8"
        }
      ],
      "stateMutability": "view",
      "type": "function"
    },
    {
      "inputs": [
        {
          "internalType": "address",
          "name": "spender",
          "type": "address"
        },
        {
          "internalType": "uint256",
          "name": "subtractedValue",
          "type": "uint256"
        }
      ],
      "name": "decreaseAllowance",
      "outputs": [
        {
          "internalType": "bool",
          "name": "",
          "type": "bool"
        }
      ],
      "stateMutability": "nonpayable",
      "type": "function"
    },
    {
      "inputs": [
        {
          "internalType": "address",
          "name": "delegatee",
          "type": "address"
        }
      ],
      "name": "delegate",
      "outputs": [],
      "stateMutability": "nonpayable",
      "type": "function"
    },
    {
      "inputs": [
        {
          "internalType": "address",
          "name": "delegatee",
          "type": "address"
        },
        {
          "internalType": "uint256",
          "name": "nonce",
          "type": "uint256"
        },
        {
          "internalType": "uint256",
          "name": "expiry",
          "type": "uint256"
        },
        {
          "internalType": "uint8",
          "name": "v",
          "type": "uint8"
        },
        {
          "internalType": "bytes32",
          "name": "r",
          "type": "bytes32"
        },
        {
          "internalType": "bytes32",
          "name": "s",
          "type": "bytes32"
        }
      ],
      "name": "delegateBySig",
      "outputs": [],
      "stateMutability": "nonpayable",
      "type": "function"
    },
    {
      "inputs": [
        {
          "internalType": "address",
          "name": "delegatee",
          "type": "address"
        },
        {
          "internalType": "enum IGovernancePowerDelegationToken.DelegationType",
          "name": "delegationType",
          "type": "uint8"
        }
      ],
      "name": "delegateByType",
      "outputs": [],
      "stateMutability": "nonpayable",
      "type": "function"
    },
    {
      "inputs": [
        {
          "internalType": "address",
          "name": "delegatee",
          "type": "address"
        },
        {
          "internalType": "enum IGovernancePowerDelegationToken.DelegationType",
          "name": "delegationType",
          "type": "uint8"
        },
        {
          "internalType": "uint256",
          "name": "nonce",
          "type": "uint256"
        },
        {
          "internalType": "uint256",
          "name": "expiry",
          "type": "uint256"
        },
        {
          "internalType": "uint8",
          "name": "v",
          "type": "uint8"
        },
        {
          "internalType": "bytes32",
          "name": "r",
          "type": "bytes32"
        },
        {
          "internalType": "bytes32",
          "name": "s",
          "type": "bytes32"
        }
      ],
      "name": "delegateByTypeBySig",
      "outputs": [],
      "stateMutability": "nonpayable",
      "type": "function"
    },
    {
      "inputs": [
        {
          "internalType": "address",
          "name": "delegator",
          "type": "address"
        },
        {
          "internalType": "enum IGovernancePowerDelegationToken.DelegationType",
          "name": "delegationType",
          "type": "uint8"
        }
      ],
      "name": "getDelegateeByType",
      "outputs": [
        {
          "internalType": "address",
          "name": "",
          "type": "address"
        }
      ],
      "stateMutability": "view",
      "type": "function"
    },
    {
      "inputs": [
        {
          "internalType": "address",
          "name": "user",
          "type": "address"
        },
        {
          "internalType": "uint256",
          "name": "blockNumber",
          "type": "uint256"
        },
        {
          "internalType": "enum IGovernancePowerDelegationToken.DelegationType",
          "name": "delegationType",
          "type": "uint8"
        }
      ],
      "name": "getPowerAtBlock",
      "outputs": [
        {
          "internalType": "uint256",
          "name": "",
          "type": "uint256"
        }
      ],
      "stateMutability": "view",
      "type": "function"
    },
    {
      "inputs": [
        {
          "internalType": "address",
          "name": "user",
          "type": "address"
        },
        {
          "internalType": "enum IGovernancePowerDelegationToken.DelegationType",
          "name": "delegationType",
          "type": "uint8"
        }
      ],
      "name": "getPowerCurrent",
      "outputs": [
        {
          "internalType": "uint256",
          "name": "",
          "type": "uint256"
        }
      ],
      "stateMutability": "view",
      "type": "function"
    },
    {
      "inputs": [
        {
          "internalType": "address",
          "name": "spender",
          "type": "address"
        },
        {
          "internalType": "uint256",
          "name": "addedValue",
          "type": "uint256"
        }
      ],
      "name": "increaseAllowance",
      "outputs": [
        {
          "internalType": "bool",
          "name": "",
          "type": "bool"
        }
      ],
      "stateMutability": "nonpayable",
      "type": "function"
    },
    {
      "inputs": [],
      "name": "initialize",
      "outputs": [],
      "stateMutability": "nonpayable",
      "type": "function"
    },
    {
      "inputs": [],
      "name": "name",
      "outputs": [
        {
          "internalType": "string",
          "name": "",
          "type": "string"
        }
      ],
      "stateMutability": "view",
      "type": "function"
    },
    {
      "inputs": [
        {
          "internalType": "address",
          "name": "owner",
          "type": "address"
        },
        {
          "internalType": "address",
          "name": "spender",
          "type": "address"
        },
        {
          "internalType": "uint256",
          "name": "value",
          "type": "uint256"
        },
        {
          "internalType": "uint256",
          "name": "deadline",
          "type": "uint256"
        },
        {
          "internalType": "uint8",
          "name": "v",
          "type": "uint8"
        },
        {
          "internalType": "bytes32",
          "name": "r",
          "type": "bytes32"
        },
        {
          "internalType": "bytes32",
          "name": "s",
          "type": "bytes32"
        }
      ],
      "name": "permit",
      "outputs": [],
      "stateMutability": "nonpayable",
      "type": "function"
    },
    {
      "inputs": [],
      "name": "symbol",
      "outputs": [
        {
          "internalType": "string",
          "name": "",
          "type": "string"
        }
      ],
      "stateMutability": "view",
      "type": "function"
    },
    {
      "inputs": [],
      "name": "totalSupply",
      "outputs": [
        {
          "internalType": "uint256",
          "name": "",
          "type": "uint256"
        }
      ],
      "stateMutability": "view",
      "type": "function"
    },
    {
      "inputs": [
        {
          "internalType": "uint256",
          "name": "blockNumber",
          "type": "uint256"
        }
      ],
      "name": "totalSupplyAt",
      "outputs": [
        {
          "internalType": "uint256",
          "name": "",
          "type": "uint256"
        }
      ],
      "stateMutability": "view",
      "type": "function"
    },
    {
      "inputs": [
        {
          "internalType": "address",
          "name": "recipient",
          "type": "address"
        },
        {
          "internalType": "uint256",
          "name": "amount",
          "type": "uint256"
        }
      ],
      "name": "transfer",
      "outputs": [
        {
          "internalType": "bool",
          "name": "",
          "type": "bool"
        }
      ],
      "stateMutability": "nonpayable",
      "type": "function"
    },
    {
      "inputs": [
        {
          "internalType": "address",
          "name": "sender",
          "type": "address"
        },
        {
          "internalType": "address",
          "name": "recipient",
          "type": "address"
        },
        {
          "internalType": "uint256",
          "name": "amount",
          "type": "uint256"
        }
      ],
      "name": "transferFrom",
      "outputs": [
        {
          "internalType": "bool",
          "name": "",
          "type": "bool"
        }
      ],
      "stateMutability": "nonpayable",
      "type": "function"
    }
  ],
  "bytecode": "0x608060405260006006553480156200001657600080fd5b50604051806040016040528060098152602001682630bc902a37b5b2b760b91b815250604051806040016040528060038152602001624c415960e81b81525081600390805190602001906200006d92919062000099565b5080516200008390600490602084019062000099565b50506005805460ff19166012179055506200017c565b828054620000a7906200013f565b90600052602060002090601f016020900481019282620000cb576000855562000116565b82601f10620000e657805160ff191683800117855562000116565b8280016001018555821562000116579182015b8281111562000116578251825591602001919060010190620000f9565b506200012492915062000128565b5090565b5b8082111562000124576000815560010162000129565b600181811c908216806200015457607f821691505b602082108114156200017657634e487b7160e01b600052602260045260246000fd5b50919050565b611de8806200018c6000396000f3fe608060405234801561001057600080fd5b50600436106101e55760003560e01c80637bb73c971161010f578063b9844d8d116100a2578063dc937e1c11610071578063dc937e1c146104c6578063dd62ed3e146104d9578063dde43cba14610512578063f713d8a81461051a57600080fd5b8063b9844d8d1461046d578063c2ffbb911461048d578063c3cda520146104a0578063d505accf146104b357600080fd5b8063a457c2d7116100de578063a457c2d71461040d578063a9059cbb14610420578063aa9fbe0214610433578063b2f4201d1461045a57600080fd5b80637bb73c97146103ca5780638129fc1c146103ea57806395d89b41146103f2578063981b24d0146103fa57600080fd5b80633644e515116101875780635c19a95c116101565780635c19a95c146103595780636f50458d1461036e57806370a082311461038157806378160376146103aa57600080fd5b80633644e515146102b757806339509351146102c057806341cbf54a146102d35780635b3cc0cf146102fa57600080fd5b80631855b9ea116101c35780631855b9ea1461023d57806323b872dd1461026857806330adf81f1461027b578063313ce567146102a257600080fd5b806306fdde03146101ea578063095ea7b31461020857806318160ddd1461022b575b600080fd5b6101f261052d565b6040516101ff9190611940565b60405180910390f35b61021b61021636600461196f565b6105bf565b60405190151581526020016101ff565b6002545b6040519081526020016101ff565b603c54610250906001600160a01b031681565b6040516001600160a01b0390911681526020016101ff565b61021b610276366004611999565b6105d6565b61022f7f6e71edae12b1b97f4d1f60370fef10105fa2faae0126114a169c64845d6126c981565b60055460405160ff90911681526020016101ff565b61022f603d5481565b61021b6102ce36600461196f565b610640565b61022f7f9a9a49b990ba9bb39f8048c490a40ab25c18f55d208d5fbcf958261a9b48716d81565b61033961030836600461196f565b603a6020908152600092835260408084209091529082529020546001600160801b0380821691600160801b90041682565b604080516001600160801b039384168152929091166020830152016101ff565b61036c6103673660046119d5565b610676565b005b61025061037c3660046119ff565b610691565b61022f61038f3660046119d5565b6001600160a01b031660009081526020819052604090205490565b6101f2604051806040016040528060018152602001603160f81b81525081565b61022f6103d83660046119d5565b603b6020526000908152604090205481565b61036c6106b3565b6101f2610728565b61022f610408366004611a32565b610737565b61021b61041b36600461196f565b610742565b61021b61042e36600461196f565b610791565b61022f7f10d8d059343739efce7dad10d09f0806da52b252b3e6a7951920d2d6ec4102e581565b61022f6104683660046119ff565b61079e565b61022f61047b3660046119d5565b60396020526000908152604090205481565b61022f61049b366004611a4b565b6107c6565b61036c6104ae366004611a98565b6107ef565b61036c6104c1366004611af0565b6109b4565b61036c6104d43660046119ff565b610b82565b61022f6104e7366004611b5a565b6001600160a01b03918216600090815260016020908152604080832093909416825291909152205490565b61022f600281565b61036c610528366004611b84565b610b91565b60606003805461053c90611bb6565b80601f016020809104026020016040519081016040528092919081815260200182805461056890611bb6565b80156105b55780601f1061058a576101008083540402835291602001916105b5565b820191906000526020600020905b81548152906001019060200180831161059857829003601f168201915b5050505050905090565b60006105cc338484610d65565b5060015b92915050565b60006105e3848484610e8a565b610635843361063085604051806060016040528060288152602001611d66602891396001600160a01b038a1660009081526001602090815260408083203384529091529020549190611018565b610d65565b5060015b9392505050565b3360008181526001602090815260408083206001600160a01b038716845290915281205490916105cc9185906106309086611049565b610682338260006110a8565b61068e338260016110a8565b50565b60008061069d836111bf565b925050506106ab84826111ff565b949350505050565b60065460029081116107235760405162461bcd60e51b815260206004820152602e60248201527f436f6e747261637420696e7374616e63652068617320616c726561647920626560448201526d195b881a5b9a5d1a585b1a5e995960921b60648201526084015b60405180910390fd5b600655565b60606004805461053c90611bb6565b60006105d060025490565b60006105cc338461063085604051806060016040528060258152602001611d8e602591393360009081526001602090815260408083206001600160a01b038d1684529091529020549190611018565b60006105cc338484610e8a565b60008060006107ac846111bf565b50915091506107bd8282874361122a565b95945050505050565b60008060006107d4846111bf565b50915091506107e58282888861122a565b9695505050505050565b604080517f9a9a49b990ba9bb39f8048c490a40ab25c18f55d208d5fbcf958261a9b48716d60208201526001600160a01b03881691810191909152606081018690526080810185905260009060a0016040516020818303038152906040528051906020012090506000603d548260405160200161086d929190611bf1565b60408051601f198184030181528282528051602091820120600080855291840180845281905260ff89169284019290925260608301879052608083018690529092509060019060a0016020604051602081039080840390855afa1580156108d8573d6000803e3d6000fd5b5050604051601f1901519150506001600160a01b03811661090b5760405162461bcd60e51b815260040161071a90611c0c565b6001600160a01b038116600090815260396020526040812080549161092f83611c4d565b9190505588146109715760405162461bcd60e51b815260206004820152600d60248201526c494e56414c49445f4e4f4e434560981b604482015260640161071a565b864211156109915760405162461bcd60e51b815260040161071a90611c68565b61099d818a60006110a8565b6109a9818a60016110a8565b505050505050505050565b6001600160a01b0387166109fa5760405162461bcd60e51b815260206004820152600d60248201526c24a72b20a624a22fa7aba722a960991b604482015260640161071a565b83421115610a1a5760405162461bcd60e51b815260040161071a90611c68565b6001600160a01b03878116600081815260396020908152604080832054603d5482517f6e71edae12b1b97f4d1f60370fef10105fa2faae0126114a169c64845d6126c98186015280840196909652958c166060860152608085018b905260a0850181905260c08086018b90528251808703909101815260e086019092528151919092012090939192610ab192919061010001611bf1565b60408051601f1981840301815282825280516020918201206000845290830180835281905260ff8816918301919091526060820186905260808201859052915060019060a0016020604051602081039080840390855afa158015610b19573d6000803e3d6000fd5b505050602060405103516001600160a01b0316896001600160a01b031614610b535760405162461bcd60e51b815260040161071a90611c0c565b610b5e826001611049565b6001600160a01b038a166000908152603960205260409020556109a9898989610d65565b610b8d3383836110a8565b5050565b60007f10d8d059343739efce7dad10d09f0806da52b252b3e6a7951920d2d6ec4102e588886001811115610bc757610bc7611c94565b6040805160208101949094526001600160a01b039092169183019190915260608201526080810187905260a0810186905260c0016040516020818303038152906040528051906020012090506000603d5482604051602001610c2a929190611bf1565b60408051601f198184030181528282528051602091820120600080855291840180845281905260ff89169284019290925260608301879052608083018690529092509060019060a0016020604051602081039080840390855afa158015610c95573d6000803e3d6000fd5b5050604051601f1901519150506001600160a01b038116610cc85760405162461bcd60e51b815260040161071a90611c0c565b6001600160a01b0381166000908152603960205260408120805491610cec83611c4d565b919050558814610d2e5760405162461bcd60e51b815260206004820152600d60248201526c494e56414c49445f4e4f4e434560981b604482015260640161071a565b86421115610d4e5760405162461bcd60e51b815260040161071a90611c68565b610d59818b8b6110a8565b50505050505050505050565b6001600160a01b038316610dc75760405162461bcd60e51b8152602060048201526024808201527f45524332303a20617070726f76652066726f6d20746865207a65726f206164646044820152637265737360e01b606482015260840161071a565b6001600160a01b038216610e285760405162461bcd60e51b815260206004820152602260248201527f45524332303a20617070726f766520746f20746865207a65726f206164647265604482015261737360f01b606482015260840161071a565b6001600160a01b0383811660008181526001602090815260408083209487168084529482529182902085905590518481527f8c5be1e5ebec7d5bd14f71427d1e84f3dd0314c0f7b2291e5b200ac8c7c3b92591015b60405180910390a3505050565b6001600160a01b038316610eee5760405162461bcd60e51b815260206004820152602560248201527f45524332303a207472616e736665722066726f6d20746865207a65726f206164604482015264647265737360d81b606482015260840161071a565b6001600160a01b038216610f505760405162461bcd60e51b815260206004820152602360248201527f45524332303a207472616e7366657220746f20746865207a65726f206164647260448201526265737360e81b606482015260840161071a565b610f5b838383611493565b610f9881604051806060016040528060268152602001611d40602691396001600160a01b0386166000908152602081905260409020549190611018565b6001600160a01b038085166000908152602081905260408082209390935590841681522054610fc79082611049565b6001600160a01b038381166000818152602081815260409182902094909455518481529092918616917fddf252ad1be2c89b69c2b068fc378daa952ba7f163c4a11628f55a4df523b3ef9101610e7d565b6000818484111561103c5760405162461bcd60e51b815260040161071a9190611940565b5060006107bd8486611caa565b6000806110568385611cc1565b9050838110156106395760405162461bcd60e51b815260206004820152601b60248201527f536166654d6174683a206164646974696f6e206f766572666c6f770000000000604482015260640161071a565b6001600160a01b0382166110f25760405162461bcd60e51b8152602060048201526011602482015270494e56414c49445f44454c45474154454560781b604482015260640161071a565b60006110fd826111bf565b925050506000611122856001600160a01b031660009081526020819052604090205490565b9050600061113086846111ff565b6001600160a01b03878116600090815260208690526040902080546001600160a01b031916918816919091179055905061116c81868487611570565b846001600160a01b0316866001600160a01b03167fe8d51c8e11bd570db1734c8ec775785330e77007feed45c43b608ef33ff914bd866040516111af9190611cfb565b60405180910390a3505050505050565b60008080808460018111156111d6576111d6611c94565b14156111ec5750603a9150603b9050603e6111f8565b50603f91506040905060415b9193909250565b6001600160a01b038083166000908152602083905260408120549091168061063957839150506105d0565b6000438211156112735760405162461bcd60e51b815260206004820152601460248201527324a72b20a624a22fa12627a1a5afa72aa6a122a960611b604482015260640161071a565b6001600160a01b038316600090815260208590526040902054806112b15750506001600160a01b0382166000908152602081905260409020546106ab565b6001600160a01b038416600090815260208790526040812084916112d6600185611caa565b81526020810191909152604001600020546001600160801b031611611343576001600160a01b038416600090815260208790526040812090611319600184611caa565b8152602081019190915260400160002054600160801b90046001600160801b031691506106ab9050565b6001600160a01b0384166000908152602087815260408083208380529091529020546001600160801b031683101561137f5760009150506106ab565b60008061138d600184611caa565b90505b8181111561145657600060026113a68484611caa565b6113b09190611d09565b6113ba9083611caa565b6001600160a01b038816600090815260208b815260408083208484528252918290208251808401909352546001600160801b03808216808552600160801b90920416918301919091529192509087141561142757602001516001600160801b031694506106ab9350505050565b80516001600160801b03168711156114415781935061144f565b61144c600183611caa565b92505b5050611390565b506001600160a01b0385166000908152602088815260408083209383529290522054600160801b90046001600160801b0316915050949350505050565b60006114a084603e6111ff565b905060006114af84603e6111ff565b90506114be8282856000611570565b60006114cb8660416111ff565b905060006114da8660416111ff565b90506114e98282876001611570565b603c546001600160a01b0316801561156657604051634a39314960e01b81526001600160a01b038981166004830152888116602483015260448201889052821690634a39314990606401600060405180830381600087803b15801561154d57600080fd5b505af1158015611561573d6000803e3d6000fd5b505050505b5050505050505050565b826001600160a01b0316846001600160a01b0316141561158f57611795565b60008061159b836111bf565b5090925090506001600160a01b0386161561169c576001600160a01b038616600090815260208290526040812054801561161b576001600160a01b0388166000908152602085905260408120906115f3600184611caa565b8152602081019190915260400160002054600160801b90046001600160801b03169150611637565b6001600160a01b03881660009081526020819052604090205491505b61164d84848a85611648818c61179b565b6117dd565b6001600160a01b0388167fa0a19463ee116110c9b282012d9b65cc5522dc38a9520340cbaf3142e550127f611682848961179b565b87604051611691929190611d2b565b60405180910390a250505b6001600160a01b03851615611792576001600160a01b0385166000908152602082905260408120548015611716576001600160a01b0387166000908152602085905260408120906116ee600184611caa565b8152602081019190915260400160002054600160801b90046001600160801b03169150611732565b6001600160a01b03871660009081526020819052604090205491505b61174384848985611648818c611049565b6001600160a01b0387167fa0a19463ee116110c9b282012d9b65cc5522dc38a9520340cbaf3142e550127f6117788489611049565b87604051611787929190611d2b565b60405180910390a250505b50505b50505050565b600061063983836040518060400160405280601e81526020017f536166654d6174683a207375627472616374696f6e206f766572666c6f770000815250611018565b6001600160a01b0383166000908152602085815260408083205491889052909120439190811580159061183f57506001600160801b038316816000611823600186611caa565b81526020810191909152604001600020546001600160801b0316145b156118835783816000611853600186611caa565b8152602081019190915260400160002080546001600160801b03928316600160801b029216919091179055611566565b6040805180820182526001600160801b038086168252868116602080840191825260008781529086905293909320915192518116600160801b0292169190911790556118d0826001611cc1565b6001600160a01b0387166000908152602089905260409020555050505050505050565b6000815180845260005b81811015611919576020818501810151868301820152016118fd565b8181111561192b576000602083870101525b50601f01601f19169290920160200192915050565b60208152600061063960208301846118f3565b80356001600160a01b038116811461196a57600080fd5b919050565b6000806040838503121561198257600080fd5b61198b83611953565b946020939093013593505050565b6000806000606084860312156119ae57600080fd5b6119b784611953565b92506119c560208501611953565b9150604084013590509250925092565b6000602082840312156119e757600080fd5b61063982611953565b80356002811061196a57600080fd5b60008060408385031215611a1257600080fd5b611a1b83611953565b9150611a29602084016119f0565b90509250929050565b600060208284031215611a4457600080fd5b5035919050565b600080600060608486031215611a6057600080fd5b611a6984611953565b925060208401359150611a7e604085016119f0565b90509250925092565b803560ff8116811461196a57600080fd5b60008060008060008060c08789031215611ab157600080fd5b611aba87611953565b95506020870135945060408701359350611ad660608801611a87565b92506080870135915060a087013590509295509295509295565b600080600080600080600060e0888a031215611b0b57600080fd5b611b1488611953565b9650611b2260208901611953565b95506040880135945060608801359350611b3e60808901611a87565b925060a0880135915060c0880135905092959891949750929550565b60008060408385031215611b6d57600080fd5b611b7683611953565b9150611a2960208401611953565b600080600080600080600060e0888a031215611b9f57600080fd5b611ba888611953565b9650611b22602089016119f0565b600181811c90821680611bca57607f821691505b60208210811415611beb57634e487b7160e01b600052602260045260246000fd5b50919050565b61190160f01b81526002810192909252602282015260420190565b602080825260119082015270494e56414c49445f5349474e415455524560781b604082015260600190565b634e487b7160e01b600052601160045260246000fd5b6000600019821415611c6157611c61611c37565b5060010190565b60208082526012908201527124a72b20a624a22fa2ac2824a920aa24a7a760711b604082015260600190565b634e487b7160e01b600052602160045260246000fd5b600082821015611cbc57611cbc611c37565b500390565b60008219821115611cd457611cd4611c37565b500190565b60028110611cf757634e487b7160e01b600052602160045260246000fd5b9052565b602081016105d08284611cd9565b600082611d2657634e487b7160e01b600052601260045260246000fd5b500490565b828152604081016106396020830184611cd956fe45524332303a207472616e7366657220616d6f756e7420657863656564732062616c616e636545524332303a207472616e7366657220616d6f756e74206578636565647320616c6c6f77616e636545524332303a2064656372656173656420616c6c6f77616e63652062656c6f77207a65726fa2646970667358221220017382c1060e44a7039d9f9db75da1ad0181a9f1235074b356dd29e1b836864064736f6c634300080b0033",
  "linkReferences": {},
  "deployedLinkReferences": {}
}