{
  "_format": "hh-sol-artifact-1",
  "contractName": "StarlayRewardsVault",
  "sourceName": "contracts/token/vault/StarlayRewardsVault.sol",
  "abi": [
    {
      "anonymous": false,
      "inputs": [
        {
          "indexed": true,
          "internalType": "address",
          "name": "previousOwner",
          "type": "address"
        },
        {
          "indexed": true,
          "internalType": "address",
          "name": "newOwner",
          "type": "address"
        }
      ],
      "name": "OwnershipTransferred",
      "type": "event"
    },
    {
      "inputs": [],
      "name": "incentiveController",
      "outputs": [
        {
          "internalType": "address",
          "name": "",
          "type": "address"
        }
      ],
      "stateMutability": "view",
      "type": "function"
    },
    {
      "inputs": [],
      "name": "owner",
      "outputs": [
        {
          "internalType": "address",
          "name": "",
          "type": "address"
        }
      ],
      "stateMutability": "view",
      "type": "function"
    },
    {
      "inputs": [],
      "name": "renounceOwnership",
      "outputs": [],
      "stateMutability": "nonpayable",
      "type": "function"
    },
    {
      "inputs": [
        {
          "internalType": "address",
          "name": "_incentiveController",
          "type": "address"
        }
      ],
      "name": "setIncentiveController",
      "outputs": [],
      "stateMutability": "nonpayable",
      "type": "function"
    },
    {
      "inputs": [
        {
          "internalType": "contract IERC20",
          "name": "token",
          "type": "address"
        },
        {
          "internalType": "uint256",
          "name": "amount",
          "type": "uint256"
        }
      ],
      "name": "transfer",
      "outputs": [],
      "stateMutability": "nonpayable",
      "type": "function"
    },
    {
      "inputs": [
        {
          "internalType": "address",
          "name": "newOwner",
          "type": "address"
        }
      ],
      "name": "transferOwnership",
      "outputs": [],
      "stateMutability": "nonpayable",
      "type": "function"
    }
  ],
  "bytecode": "0x608060405234801561001057600080fd5b50600080546001600160a01b031916339081178255604051909182917f8be0079c531659141344cd1fd0a4f28419497f9722a3daafe3b4186f6b6457e0908290a350610438806100616000396000f3fe608060405234801561001057600080fd5b50600436106100625760003560e01c806301056e64146100675780635b9fe37f1461007c578063715018a6146100ab5780638da5cb5b146100b3578063a9059cbb146100c4578063f2fde38b146100d7575b600080fd5b61007a61007536600461035b565b6100ea565b005b60015461008f906001600160a01b031681565b6040516001600160a01b03909116815260200160405180910390f35b61007a61013f565b6000546001600160a01b031661008f565b61007a6100d236600461037f565b6101b3565b61007a6100e536600461035b565b610259565b6000546001600160a01b0316331461011d5760405162461bcd60e51b8152600401610114906103ab565b60405180910390fd5b600180546001600160a01b0319166001600160a01b0392909216919091179055565b6000546001600160a01b031633146101695760405162461bcd60e51b8152600401610114906103ab565b600080546040516001600160a01b03909116907f8be0079c531659141344cd1fd0a4f28419497f9722a3daafe3b4186f6b6457e0908390a3600080546001600160a01b0319169055565b6000546001600160a01b031633146101dd5760405162461bcd60e51b8152600401610114906103ab565b60015460405163a9059cbb60e01b81526001600160a01b039182166004820152602481018390529083169063a9059cbb906044016020604051808303816000875af1158015610230573d6000803e3d6000fd5b505050506040513d601f19601f8201168201806040525081019061025491906103e0565b505050565b6000546001600160a01b031633146102835760405162461bcd60e51b8152600401610114906103ab565b6001600160a01b0381166102e85760405162461bcd60e51b815260206004820152602660248201527f4f776e61626c653a206e6577206f776e657220697320746865207a65726f206160448201526564647265737360d01b6064820152608401610114565b600080546040516001600160a01b03808516939216917f8be0079c531659141344cd1fd0a4f28419497f9722a3daafe3b4186f6b6457e091a3600080546001600160a01b0319166001600160a01b0392909216919091179055565b6001600160a01b038116811461035857600080fd5b50565b60006020828403121561036d57600080fd5b813561037881610343565b9392505050565b6000806040838503121561039257600080fd5b823561039d81610343565b946020939093013593505050565b6020808252818101527f4f776e61626c653a2063616c6c6572206973206e6f7420746865206f776e6572604082015260600190565b6000602082840312156103f257600080fd5b8151801515811461037857600080fdfea2646970667358221220a392f05f3a3cc566ddbce8911f5ef01849b434438915bd4e7f9a53481d463d7364736f6c634300080b0033",
  "linkReferences": {},
  "deployedLinkReferences": {}
}