{
  "_format": "hh-sol-artifact-1",
  "contractName": "LayToken",
  "sourceName": "contracts/token/LayToken.sol",
  "abi": [
    {
      "inputs": [],
      "stateMutability": "nonpayable",
      "type": "constructor"
    },
    {
      "anonymous": false,
      "inputs": [
        {
          "indexed": true,
          "internalType": "address",
          "name": "owner",
          "type": "address"
        },
        {
          "indexed": true,
          "internalType": "address",
          "name": "spender",
          "type": "address"
        },
        {
          "indexed": false,
          "internalType": "uint256",
          "name": "value",
          "type": "uint256"
        }
      ],
      "name": "Approval",
      "type": "event"
    },
    {
      "anonymous": false,
      "inputs": [
        {
          "indexed": false,
          "internalType": "address",
          "name": "owner",
          "type": "address"
        },
        {
          "indexed": false,
          "internalType": "uint128",
          "name": "oldValue",
          "type": "uint128"
        },
        {
          "indexed": false,
          "internalType": "uint128",
          "name": "newValue",
          "type": "uint128"
        }
      ],
      "name": "SnapshotDone",
      "type": "event"
    },
    {
      "anonymous": false,
      "inputs": [
        {
          "indexed": true,
          "internalType": "address",
          "name": "from",
          "type": "address"
        },
        {
          "indexed": true,
          "internalType": "address",
          "name": "to",
          "type": "address"
        },
        {
          "indexed": false,
          "internalType": "uint256",
          "name": "value",
          "type": "uint256"
        }
      ],
      "name": "Transfer",
      "type": "event"
    },
    {
      "inputs": [],
      "name": "DOMAIN_SEPARATOR",
      "outputs": [
        {
          "internalType": "bytes32",
          "name": "",
          "type": "bytes32"
        }
      ],
      "stateMutability": "view",
      "type": "function"
    },
    {
      "inputs": [],
      "name": "EIP712_REVISION",
      "outputs": [
        {
          "internalType": "bytes",
          "name": "",
          "type": "bytes"
        }
      ],
      "stateMutability": "view",
      "type": "function"
    },
    {
      "inputs": [],
      "name": "PERMIT_TYPEHASH",
      "outputs": [
        {
          "internalType": "bytes32",
          "name": "",
          "type": "bytes32"
        }
      ],
      "stateMutability": "view",
      "type": "function"
    },
    {
      "inputs": [],
      "name": "REVISION",
      "outputs": [
        {
          "internalType": "uint256",
          "name": "",
          "type": "uint256"
        }
      ],
      "stateMutability": "view",
      "type": "function"
    },
    {
      "inputs": [
        {
          "internalType": "address",
          "name": "",
          "type": "address"
        }
      ],
      "name": "_countsSnapshots",
      "outputs": [
        {
          "internalType": "uint256",
          "name": "",
          "type": "uint256"
        }
      ],
      "stateMutability": "view",
      "type": "function"
    },
    {
      "inputs": [
        {
          "internalType": "address",
          "name": "",
          "type": "address"
        }
      ],
      "name": "_nonces",
      "outputs": [
        {
          "internalType": "uint256",
          "name": "",
          "type": "uint256"
        }
      ],
      "stateMutability": "view",
      "type": "function"
    },
    {
      "inputs": [
        {
          "internalType": "address",
          "name": "",
          "type": "address"
        },
        {
          "internalType": "uint256",
          "name": "",
          "type": "uint256"
        }
      ],
      "name": "_snapshots",
      "outputs": [
        {
          "internalType": "uint128",
          "name": "blockNumber",
          "type": "uint128"
        },
        {
          "internalType": "uint128",
          "name": "value",
          "type": "uint128"
        }
      ],
      "stateMutability": "view",
      "type": "function"
    },
    {
      "inputs": [],
      "name": "_starleyGovernance",
      "outputs": [
        {
          "internalType": "contract ITransferHook",
          "name": "",
          "type": "address"
        }
      ],
      "stateMutability": "view",
      "type": "function"
    },
    {
      "inputs": [
        {
          "internalType": "address",
          "name": "owner",
          "type": "address"
        },
        {
          "internalType": "address",
          "name": "spender",
          "type": "address"
        }
      ],
      "name": "allowance",
      "outputs": [
        {
          "internalType": "uint256",
          "name": "",
          "type": "uint256"
        }
      ],
      "stateMutability": "view",
      "type": "function"
    },
    {
      "inputs": [
        {
          "internalType": "address",
          "name": "spender",
          "type": "address"
        },
        {
          "internalType": "uint256",
          "name": "amount",
          "type": "uint256"
        }
      ],
      "name": "approve",
      "outputs": [
        {
          "internalType": "bool",
          "name": "",
          "type": "bool"
        }
      ],
      "stateMutability": "nonpayable",
      "type": "function"
    },
    {
      "inputs": [
        {
          "internalType": "address",
          "name": "account",
          "type": "address"
        }
      ],
      "name": "balanceOf",
      "outputs": [
        {
          "internalType": "uint256",
          "name": "",
          "type": "uint256"
        }
      ],
      "stateMutability": "view",
      "type": "function"
    },
    {
      "inputs": [],
      "name": "decimals",
      "outputs": [
        {
          "internalType": "uint8",
          "name": "",
          "type": "uint8"
        }
      ],
      "stateMutability": "view",
      "type": "function"
    },
    {
      "inputs": [
        {
          "internalType": "address",
          "name": "spender",
          "type": "address"
        },
        {
          "internalType": "uint256",
          "name": "subtractedValue",
          "type": "uint256"
        }
      ],
      "name": "decreaseAllowance",
      "outputs": [
        {
          "internalType": "bool",
          "name": "",
          "type": "bool"
        }
      ],
      "stateMutability": "nonpayable",
      "type": "function"
    },
    {
      "inputs": [
        {
          "internalType": "address",
          "name": "spender",
          "type": "address"
        },
        {
          "internalType": "uint256",
          "name": "addedValue",
          "type": "uint256"
        }
      ],
      "name": "increaseAllowance",
      "outputs": [
        {
          "internalType": "bool",
          "name": "",
          "type": "bool"
        }
      ],
      "stateMutability": "nonpayable",
      "type": "function"
    },
    {
      "inputs": [
        {
          "internalType": "address",
          "name": "vestingAddress",
          "type": "address"
        },
        {
          "internalType": "address",
          "name": "vaultAddress",
          "type": "address"
        },
        {
          "internalType": "contract ITransferHook",
          "name": "starleyGovernance",
          "type": "address"
        }
      ],
      "name": "initialize",
      "outputs": [],
      "stateMutability": "nonpayable",
      "type": "function"
    },
    {
      "inputs": [],
      "name": "name",
      "outputs": [
        {
          "internalType": "string",
          "name": "",
          "type": "string"
        }
      ],
      "stateMutability": "view",
      "type": "function"
    },
    {
      "inputs": [
        {
          "internalType": "address",
          "name": "owner",
          "type": "address"
        },
        {
          "internalType": "address",
          "name": "spender",
          "type": "address"
        },
        {
          "internalType": "uint256",
          "name": "value",
          "type": "uint256"
        },
        {
          "internalType": "uint256",
          "name": "deadline",
          "type": "uint256"
        },
        {
          "internalType": "uint8",
          "name": "v",
          "type": "uint8"
        },
        {
          "internalType": "bytes32",
          "name": "r",
          "type": "bytes32"
        },
        {
          "internalType": "bytes32",
          "name": "s",
          "type": "bytes32"
        }
      ],
      "name": "permit",
      "outputs": [],
      "stateMutability": "nonpayable",
      "type": "function"
    },
    {
      "inputs": [],
      "name": "symbol",
      "outputs": [
        {
          "internalType": "string",
          "name": "",
          "type": "string"
        }
      ],
      "stateMutability": "view",
      "type": "function"
    },
    {
      "inputs": [],
      "name": "totalSupply",
      "outputs": [
        {
          "internalType": "uint256",
          "name": "",
          "type": "uint256"
        }
      ],
      "stateMutability": "view",
      "type": "function"
    },
    {
      "inputs": [
        {
          "internalType": "address",
          "name": "recipient",
          "type": "address"
        },
        {
          "internalType": "uint256",
          "name": "amount",
          "type": "uint256"
        }
      ],
      "name": "transfer",
      "outputs": [
        {
          "internalType": "bool",
          "name": "",
          "type": "bool"
        }
      ],
      "stateMutability": "nonpayable",
      "type": "function"
    },
    {
      "inputs": [
        {
          "internalType": "address",
          "name": "sender",
          "type": "address"
        },
        {
          "internalType": "address",
          "name": "recipient",
          "type": "address"
        },
        {
          "internalType": "uint256",
          "name": "amount",
          "type": "uint256"
        }
      ],
      "name": "transferFrom",
      "outputs": [
        {
          "internalType": "bool",
          "name": "",
          "type": "bool"
        }
      ],
      "stateMutability": "nonpayable",
      "type": "function"
    }
  ],
  "bytecode": "0x608060405260006006553480156200001657600080fd5b50604051806040016040528060098152602001682630bc902a37b5b2b760b91b815250604051806040016040528060038152602001624c415960e81b81525081600390805190602001906200006d92919062000099565b5080516200008390600490602084019062000099565b50506005805460ff19166012179055506200017c565b828054620000a7906200013f565b90600052602060002090601f016020900481019282620000cb576000855562000116565b82601f10620000e657805160ff191683800117855562000116565b8280016001018555821562000116579182015b8281111562000116578251825591602001919060010190620000f9565b506200012492915062000128565b5090565b5b8082111562000124576000815560010162000129565b600181811c908216806200015457607f821691505b602082108114156200017657634e487b7160e01b600052602260045260246000fd5b50919050565b611448806200018c6000396000f3fe608060405234801561001057600080fd5b50600436106101375760003560e01c806370a08231116100b8578063a9059cbb1161007c578063a9059cbb14610308578063b9844d8d1461031b578063c0c53b8b1461033b578063d505accf14610350578063dd62ed3e14610363578063dde43cba1461039c57600080fd5b806370a082311461028457806378160376146102ad5780638779588c146102cd57806395d89b41146102ed578063a457c2d7146102f557600080fd5b80632acbf823116100ff5780632acbf823146101cd57806330adf81f1461022c578063313ce567146102535780633644e51514610268578063395093511461027157600080fd5b806306fdde031461013c578063094ac7bc1461015a578063095ea7b31461018557806318160ddd146101a857806323b872dd146101ba575b600080fd5b6101446103a4565b604051610151919061116f565b60405180910390f35b603c5461016d906001600160a01b031681565b6040516001600160a01b039091168152602001610151565b61019861019336600461119a565b610436565b6040519015158152602001610151565b6002545b604051908152602001610151565b6101986101c83660046111c6565b61044c565b61020c6101db36600461119a565b603a6020908152600092835260408084209091529082529020546001600160801b0380821691600160801b90041682565b604080516001600160801b03938416815292909116602083015201610151565b6101ac7f6e71edae12b1b97f4d1f60370fef10105fa2faae0126114a169c64845d6126c981565b60055460405160ff9091168152602001610151565b6101ac603d5481565b61019861027f36600461119a565b6104b5565b6101ac610292366004611207565b6001600160a01b031660009081526020819052604090205490565b610144604051806040016040528060018152602001603160f81b81525081565b6101ac6102db366004611207565b603b6020526000908152604090205481565b6101446104eb565b61019861030336600461119a565b6104fa565b61019861031636600461119a565b610549565b6101ac610329366004611207565b60396020526000908152604090205481565b61034e610349366004611224565b610556565b005b61034e61035e36600461126f565b610755565b6101ac6103713660046112e6565b6001600160a01b03918216600090815260016020908152604080832093909416825291909152205490565b6101ac600181565b6060600380546103b39061131f565b80601f01602080910402602001604051908101604052809291908181526020018280546103df9061131f565b801561042c5780601f106104015761010080835404028352916020019161042c565b820191906000526020600020905b81548152906001019060200180831161040f57829003601f168201915b5050505050905090565b6000610443338484610987565b50600192915050565b6000610459848484610aac565b6104ab84336104a6856040518060600160405280602881526020016113c6602891396001600160a01b038a1660009081526001602090815260408083203384529091529020549190610c3a565b610987565b5060019392505050565b3360008181526001602090815260408083206001600160a01b038716845290915281205490916104439185906104a69086610c74565b6060600480546103b39061131f565b600061044333846104a6856040518060600160405280602581526020016113ee602591393360009081526001602090815260408083206001600160a01b038d1684529091529020549190610c3a565b6000610443338484610aac565b60065460019081116105c65760405162461bcd60e51b815260206004820152602e60248201527f436f6e747261637420696e7374616e63652068617320616c726561647920626560448201526d195b881a5b9a5d1a585b1a5e995960921b60648201526084015b60405180910390fd5b600681905560408051808201825260098152682630bc902a37b5b2b760b91b6020918201528151808301835260018152603160f81b9082015281517f8b73c3c69bb8fe3d512ecc4cf759cc79239f7b179b0ffacaa9a75d522b39400f918101919091527f58f2d7464b3ed182e6c03810250f4acfbbfdf045c085a40cc66128861d99e04d918101919091527fc89efdaa54c0f20c7adf612882df0950f5a951637e0307cdcb4c672f298b8bc6606082015246608082018190523060a08301529060c00160408051601f198184030181528282528051602091820120603d558282019091526009808352682630bc902a37b5b2b760b91b929091019182526106cf91600391611089565b50604080518082019091526003808252624c415960e81b60209092019182526106fa91600491611089565b506005805460ff19166012179055603c80546001600160a01b0319166001600160a01b038516179055610739856b024306c4097859c43c000000610cda565b61074e846af8277896582678ac000000610cda565b5050505050565b6001600160a01b03871661079b5760405162461bcd60e51b815260206004820152600d60248201526c24a72b20a624a22fa7aba722a960991b60448201526064016105bd565b834211156107e05760405162461bcd60e51b815260206004820152601260248201527124a72b20a624a22fa2ac2824a920aa24a7a760711b60448201526064016105bd565b6001600160a01b03878116600081815260396020908152604080832054603d5482517f6e71edae12b1b97f4d1f60370fef10105fa2faae0126114a169c64845d6126c98186015280840196909652958c166060860152608085018b905260a0850181905260c08086018b90528251808703909101815260e086019092528151919092012061190160f01b610100850152610102840194909452610122830193909352906101420160408051601f1981840301815282825280516020918201206000845290830180835281905260ff8816918301919091526060820186905260808201859052915060019060a0016020604051602081039080840390855afa1580156108ef573d6000803e3d6000fd5b505050602060405103516001600160a01b0316896001600160a01b03161461094d5760405162461bcd60e51b8152602060048201526011602482015270494e56414c49445f5349474e415455524560781b60448201526064016105bd565b610958826001610c74565b6001600160a01b038a1660009081526039602052604090205561097c898989610987565b505050505050505050565b6001600160a01b0383166109e95760405162461bcd60e51b8152602060048201526024808201527f45524332303a20617070726f76652066726f6d20746865207a65726f206164646044820152637265737360e01b60648201526084016105bd565b6001600160a01b038216610a4a5760405162461bcd60e51b815260206004820152602260248201527f45524332303a20617070726f766520746f20746865207a65726f206164647265604482015261737360f01b60648201526084016105bd565b6001600160a01b0383811660008181526001602090815260408083209487168084529482529182902085905590518481527f8c5be1e5ebec7d5bd14f71427d1e84f3dd0314c0f7b2291e5b200ac8c7c3b92591015b60405180910390a3505050565b6001600160a01b038316610b105760405162461bcd60e51b815260206004820152602560248201527f45524332303a207472616e736665722066726f6d20746865207a65726f206164604482015264647265737360d81b60648201526084016105bd565b6001600160a01b038216610b725760405162461bcd60e51b815260206004820152602360248201527f45524332303a207472616e7366657220746f20746865207a65726f206164647260448201526265737360e81b60648201526084016105bd565b610b7d838383610dc4565b610bba816040518060600160405280602681526020016113a0602691396001600160a01b0386166000908152602081905260409020549190610c3a565b6001600160a01b038085166000908152602081905260408082209390935590841681522054610be99082610c74565b6001600160a01b038381166000818152602081815260409182902094909455518481529092918616917fddf252ad1be2c89b69c2b068fc378daa952ba7f163c4a11628f55a4df523b3ef9101610a9f565b60008184841115610c5e5760405162461bcd60e51b81526004016105bd919061116f565b506000610c6b8486611370565b95945050505050565b600080610c818385611387565b905083811015610cd35760405162461bcd60e51b815260206004820152601b60248201527f536166654d6174683a206164646974696f6e206f766572666c6f77000000000060448201526064016105bd565b9392505050565b6001600160a01b038216610d305760405162461bcd60e51b815260206004820152601f60248201527f45524332303a206d696e7420746f20746865207a65726f20616464726573730060448201526064016105bd565b610d3c60008383610dc4565b600254610d499082610c74565b6002556001600160a01b038216600090815260208190526040902054610d6f9082610c74565b6001600160a01b038316600081815260208181526040808320949094559251848152919290917fddf252ad1be2c89b69c2b068fc378daa952ba7f163c4a11628f55a4df523b3ef910160405180910390a35050565b816001600160a01b0316836001600160a01b03161415610de357505050565b6001600160a01b03831615610e21576001600160a01b038316600090815260208190526040902054610e1f8482610e1a8186610edd565b610f1f565b505b6001600160a01b03821615610e5a576001600160a01b038216600090815260208190526040902054610e588382610e1a8186610c74565b505b603c546001600160a01b03168015610ed757604051634a39314960e01b81526001600160a01b038581166004830152848116602483015260448201849052821690634a39314990606401600060405180830381600087803b158015610ebe57600080fd5b505af1158015610ed2573d6000803e3d6000fd5b505050505b50505050565b6000610cd383836040518060400160405280601e81526020017f536166654d6174683a207375627472616374696f6e206f766572666c6f770000815250610c3a565b6001600160a01b0383166000908152603b6020908152604080832054603a9092529091204391908115801590610f8457506001600160801b038316816000610f68600186611370565b81526020810191909152604001600020546001600160801b0316145b15610fc85783816000610f98600186611370565b8152602081019190915260400160002080546001600160801b03928316600160801b02921691909117905561102f565b6040805180820182526001600160801b038086168252868116602080840191825260008781529086905293909320915192518116600160801b029216919091179055611015826001611387565b6001600160a01b0387166000908152603b60205260409020555b604080516001600160a01b03881681526001600160801b03878116602083015286168183015290517f2cd3c83ddac2953ee75f53265d9ea4463eaf05030e5459a1b7e63819b7ce88f79181900360600190a1505050505050565b8280546110959061131f565b90600052602060002090601f0160209004810192826110b757600085556110fd565b82601f106110d057805160ff19168380011785556110fd565b828001600101855582156110fd579182015b828111156110fd5782518255916020019190600101906110e2565b5061110992915061110d565b5090565b5b80821115611109576000815560010161110e565b6000815180845260005b818110156111485760208185018101518683018201520161112c565b8181111561115a576000602083870101525b50601f01601f19169290920160200192915050565b602081526000610cd36020830184611122565b6001600160a01b038116811461119757600080fd5b50565b600080604083850312156111ad57600080fd5b82356111b881611182565b946020939093013593505050565b6000806000606084860312156111db57600080fd5b83356111e681611182565b925060208401356111f681611182565b929592945050506040919091013590565b60006020828403121561121957600080fd5b8135610cd381611182565b60008060006060848603121561123957600080fd5b833561124481611182565b9250602084013561125481611182565b9150604084013561126481611182565b809150509250925092565b600080600080600080600060e0888a03121561128a57600080fd5b873561129581611182565b965060208801356112a581611182565b95506040880135945060608801359350608088013560ff811681146112c957600080fd5b9699959850939692959460a0840135945060c09093013592915050565b600080604083850312156112f957600080fd5b823561130481611182565b9150602083013561131481611182565b809150509250929050565b600181811c9082168061133357607f821691505b6020821081141561135457634e487b7160e01b600052602260045260246000fd5b50919050565b634e487b7160e01b600052601160045260246000fd5b6000828210156113825761138261135a565b500390565b6000821982111561139a5761139a61135a565b50019056fe45524332303a207472616e7366657220616d6f756e7420657863656564732062616c616e636545524332303a207472616e7366657220616d6f756e74206578636565647320616c6c6f77616e636545524332303a2064656372656173656420616c6c6f77616e63652062656c6f77207a65726fa26469706673582212201dc5c3d381715ca3c73a32b2d3ae8440f4da98009a077768a93b84b5874b505c64736f6c634300080b0033",
  "linkReferences": {},
  "deployedLinkReferences": {}
}